:020000040800F2
:100000000000012025490008CF300008D730000843
:10001000DF300008E7300008EF3000080000000083
:10002000000000000000000000000000F7300008A1
:1000300003310008000000000F3100081B310008E8
:1000400075490008754900082731000875490008FE
:100050007549000875490008754900087549000888
:100060007549000875490008754900083B310008CA
:100070004F310008754900087549000875490008A6
:100080007549000875490008754900087549000858
:10009000000000007549000875490008754900080E
:1000A0007549000875490008754900087549000838
:1000B0007549000875490008754900087549000828
:1000C0006331000877310008754900087549000858
:1000D0008B3100089F31000875490008B3310008D2
:1000E0007549000875490008C731000875490008BE
:1000F0007549000800000000000000007549000874
:100100007549000875490008DB3100087549000889
:1001100075490008754900087549000875490008C7
:1001200075490008754900087549000875490008B7
:0801300075490008EF310008D9
:1001380010B5054C237833B9044B13B10448AFF319
:1001480000800123237010BDD806002000000000A5
:10015800E8CF030808B5034B1BB103490348AFF3C5
:10016800008008BD00000000DC060020E8CF03087E
:10017800A3F5803A704700BF174B002B08BF134BFD
:100188009D46FFF7F5FF00218B460F461348144A9A
:10019800121A3CF0A4F80E4B002B00D098470D4BD8
:1001A800002B00D098470020002104000D000D48C6
:1001B800002802D00C483CF0A3F93CF011F92000CB
:1001C800290002F03CFA3BF0EFFE00BF00000800F7
:1001D800000000000000000000000000D806002019
:1001E8004C28002009C5030825CE0308FCE50308B0
:1001F80000000020D4060020D80600204C2800204B
:10020800034613F8012B002AFBD1181A013870474E
:1002180070B54FF0FF0C4CF4E06C1CEA11541DBF94
:100228001CEA135594EA0C0F95EA0C0F00F0DEF85F
:100238002C4481EA030621EA4C5123EA4C5350EA44
:10024800013518BF52EA033541F4801143F4801395
:1002580038D0A0FB02CE4FF00005E1FB02E506F026
:100268000042E0FB03E54FF00006E1FB03569CF07B
:10027800000F18BF4EF0010EA4F1FF04B6F5007F81
:1002880064F5407404D25FEA4E0E6D4146EB0606F3
:1002980042EAC62141EA55514FEAC52040EA5E507C
:1002A8004FEACE2EB4F1FD0C88BFBCF5E06F1ED826
:1002B800BEF1004F08BF5FEA500E50F1000041EB5D
:1002C800045170BD06F0004646EA010140EA02000A
:1002D80081EA0301B4EB5C04C2BFD4EB0C0541EA2C
:1002E800045170BD41F480114FF0000E013C00F341
:1002F800AB8014F1360FDEBF002001F0004170BD65
:10030800C4F10004203C35DA0C341BDC04F114047D
:10031800C4F1200500FA05F320FA04F001FA05F209
:1003280040EA020001F0004221F0004110EBD370D6
:1003380021FA04F642EB06015EEA430E08BF20EA02
:10034800D37070BDC4F10C04C4F1200500FA04F3A5
:1003580020FA05F001FA04F240EA020001F0004137
:1003680010EBD37041F100015EEA430E08BF20EAAA
:10037800D37070BDC4F1200500FA05F24EEA020EF2
:1003880020FA04F301FA05F243EA020321FA04F021
:1003980001F0004121FA04F220EA020000EBD370D8
:1003A8005EEA430E08BF20EAD37070BD94F0000FD8
:1003B8000FD101F00046400041EB010111F4801F0C
:1003C80008BF013CF7D041EA060195F0000F18BFBD
:1003D800704703F00046520043EB030313F4801FF9
:1003E80008BF013DF7D043EA0603704794EA0C0FB3
:1003F8000CEA135518BF95EA0C0F0CD050EA4106C9
:1004080018BF52EA4306D1D181EA030101F0004145
:100418004FF0000070BD50EA410606BF104619466D
:1004280052EA430619D094EA0C0F02D150EA013679
:1004380013D195EA0C0F05D152EA03361CBF1046BA
:1004480019460AD181EA030101F0004141F0FE4159
:1004580041F470014FF0000070BD41F0FE4141F4DD
:10046800780170BD4FF0FF0C1CEAD0521EBF1CEA89
:10047800D15392EA0C0F93EA0C0F6FD01A4480EA1A
:10048800010C400218BF5FEA41211ED04FF0006303
:1004980043EA501043EA5111A0FB01310CF000402F
:1004A800B1F5000F3EBF490041EAD3715B0040EA55
:1004B800010062F17F02FD2A1DD8B3F1004F40EB25
:1004C800C25008BF20F00100704790F0000F0CF0F8
:1004D800004C08BF49024CEA502040EA51207F3ABC
:1004E800C2BFD2F1FF0340EAC250704740F4000097
:1004F8004FF00003013A5DDC12F1190FDCBF00F088
:1005080000407047C2F10002410021FA02F1C2F135
:10051800200200FA02FC5FEA310040F1000053EAD1
:100528004C0308BF20EADC70704792F0000F00F01F
:10053800004C02BF400010F4000F013AF9D040EA25
:100548000C0093F0000F01F0004C02BF490011F4B9
:10055800000F013BF9D041EA0C018FE70CEAD153B7
:1005680092EA0C0F18BF93EA0C0F0AD030F0004C37
:1005780018BF31F0004CD8D180EA010000F00040EB
:10058800704790F0000F17BF90F0004F084691F0A9
:10059800000F91F0004F14D092EA0C0F01D14202E3
:1005A8000FD193EA0C0F03D14B0218BF084608D1AC
:1005B80080EA010000F0004040F0FE4040F40000F6
:1005C800704740F0FE4040F44000704781F0004121
:1005D80002E000BF83F0004330B54FEA41044FEA20
:1005E800430594EA050F08BF90EA020F1FBF54EABB
:1005F800000C55EA020C7FEA645C7FEA655C00F057
:10060800E2804FEA5454D4EB5555B8BF6D420CDD27
:100618002C4480EA020281EA030382EA000083EAAA
:10062800010180EA020281EA0303362D88BF30BD4A
:1006380011F0004F4FEA01314FF4801C4CEA1131A0
:1006480002D0404261EB410113F0004F4FEA0333FF
:100658004CEA133302D0524263EB430394EA050F8A
:1006680000F0A780A4F10104D5F1200E0DDB02FAF9
:100678000EFC22FA05F2801841F1000103FA0EF28D
:10068800801843FA05F359410EE0A5F120050EF153
:10069800200E012A03FA0EFC28BF4CF0020C43FA84
:1006A80005F3C01851EBE37101F0004507D54FF091
:1006B800000EDCF1000C7EEB00006EEB0101B1F5E1
:1006C800801F1BD3B1F5001F0CD349085FEA300027
:1006D8004FEA3C0C04F101044FEA445212F5800F32
:1006E80080F09A80BCF1004F08BF5FEA500C50F1CF
:1006F800000041EB045141EA050130BD5FEA4C0CB2
:10070800404141EB0101013C28BFB1F5801FE9D20E
:1007180091F0000F04BF01460020B1FA81F308BF31
:100728002033A3F10B03B3F120020CDA0C3208DDFD
:1007380002F1140CC2F10C0201FA0CF021FA02F1D8
:100748000CE002F11402D8BFC2F1200C01FA02F148
:1007580020FA0CFCDCBF41EA0C019040E41AA2BF6D
:1007680001EB0451294330BD6FEA04041F3C1CDA35
:100778000C340EDC04F11404C4F1200220FA04F055
:1007880001FA02F340EA030021FA04F345EA0301FF
:1007980030BDC4F10C04C4F1200220FA02F001FAC1
:1007A80004F340EA0300294630BD21FA04F0294643
:1007B80030BD94F0000F83F4801306BF81F48011DC
:1007C8000134013D4EE77FEA645C18BF7FEA655C4F
:1007D80029D094EA050F08BF90EA020F05D054EA21
:1007E800000C04BF1946104630BD91EA030F1EBF26
:1007F8000021002030BD5FEA545C05D1400049412A
:1008080028BF41F0004130BD14F580043CBF01F51C
:10081800801130BD01F0004545F0FE4141F4700102
:100828004FF0000030BD7FEA645C1ABF19461046DD
:100838007FEA655C1CBF0B46024650EA013406BFDE
:1008480052EA033591EA030F41F4002130BD00BF9D
:1008580090F0000F04BF0021704730B54FF480645A
:1008680004F132044FF000054FF0000150E700BFDB
:1008780090F0000F04BF0021704730B54FF480643A
:1008880004F1320410F0004548BF40424FF0000127
:100898003EE700BF42004FEAE2014FEA31014FEA6A
:1008A80002701FBF12F07F4393F07F4F81F06051B9
:1008B800704732F07F4208BF704793F07F4F04BF04
:1008C80041F40021704730B54FF4607401F00045E1
:1008D80021F000411CE700BF50EA010208BF704741
:1008E80030B54FF000050AE050EA010208BF704732
:1008F80030B511F0004502D5404261EB41014FF49B
:10090800806404F132045FEA915C3FF4D8AE4FF0A2
:1009180003025FEADC0C18BF03325FEADC0C18BF85
:10092800033202EBDC02C2F1200300FA03FC20FAD6
:1009380002F001FA03FE40EA0E0021FA02F1144423
:10094800BDE600BF70B54FF0FF0C4CF4E06C1CEA3C
:1009580011541DBF1CEA135594EA0C0F95EA0C0FAD
:1009680000F0DEF82C4481EA030621EA4C5123EA20
:100978004C5350EA013518BF52EA033541F480114F
:1009880043F4801338D0A0FB02CE4FF00005E1FB02
:1009980002E506F00042E0FB03E54FF00006E1FB4C
:1009A80003569CF0000F18BF4EF0010EA4F1FF048F
:1009B800B6F5007F64F5407404D25FEA4E0E6D41CF
:1009C80046EB060642EAC62141EA55514FEAC520E0
:1009D80040EA5E504FEACE2EB4F1FD0C88BFBCF55C
:1009E800E06F1ED8BEF1004F08BF5FEA500E50F10D
:1009F800000041EB045170BD06F0004646EA0101D3
:100A080040EA020081EA0301B4EB5C04C2BFD4EB04
:100A18000C0541EA045170BD41F480114FF0000EFD
:100A2800013C00F3AB8014F1360FDEBF002001F06B
:100A3800004170BDC4F10004203C35DA0C341BDCE5
:100A480004F11404C4F1200500FA05F320FA04F0B7
:100A580001FA05F240EA020001F0004221F00041EB
:100A680010EBD37021FA04F642EB06015EEA430E5E
:100A780008BF20EAD37070BDC4F10C04C4F120058E
:100A880000FA04F320FA05F001FA04F240EA020041
:100A980001F0004110EBD37041F100015EEA430E12
:100AA80008BF20EAD37070BDC4F1200500FA05F232
:100AB8004EEA020E20FA04F301FA05F243EA0203B1
:100AC80021FA04F001F0004121FA04F220EA0200C0
:100AD80000EBD3705EEA430E08BF20EAD37070BD06
:100AE80094F0000F0FD101F00046400041EB0101E6
:100AF80011F4801F08BF013CF7D041EA060195F0C8
:100B0800000F18BF704703F00046520043EB030381
:100B180013F4801F08BF013DF7D043EA060370476E
:100B280094EA0C0F0CEA135518BF95EA0C0F0CD079
:100B380050EA410618BF52EA4306D1D181EA0301BF
:100B480001F000414FF0000070BD50EA410606BFB9
:100B58001046194652EA430619D094EA0C0F02D1FE
:100B680050EA013613D195EA0C0F05D152EA033643
:100B78001CBF104619460AD181EA030101F0004161
:100B880041F0FE4141F470014FF0000070BD41F0AA
:100B9800FE4141F4780170BD70B54FF0FF0C4CF484
:100BA800E06C1CEA11541DBF1CEA135594EA0C0FA3
:100BB80095EA0C0F00F0A7F8A4EB050481EA030EF0
:100BC80052EA03354FEA013100F088804FEA0333D7
:100BD8004FF0805545EA131343EA12634FEA0222A5
:100BE80045EA111545EA10654FEA00260EF0004166
:100BF8009D4208BF964244F1FD0404F5407402D2B8
:100C08005B084FEA3202B61A65EB03055B084FEA48
:100C180032024FF480104FF4002CB6EB020E75EB45
:100C2800030E22BFB61A754640EA0C005B084FEA6D
:100C38003202B6EB020E75EB030E22BFB61A7546EA
:100C480040EA5C005B084FEA3202B6EB020E75EB35
:100C5800030E22BFB61A754640EA9C005B084FEAAD
:100C68003202B6EB020E75EB030E22BFB61A7546BA
:100C780040EADC0055EA060E18D04FEA051545EAA9
:100C880016754FEA06164FEAC30343EA52734FEA52
:100C9800C2025FEA1C1CC0D111F4801F0BD141EACB
:100CA80000014FF000004FF0004CB6E711F4801F30
:100CB80004BF01430020B4F1FD0C88BFBCF5E06F10
:100CC8003FF6AFAEB5EB030C04BFB6EB020C5FEA20
:100CD800500C50F1000041EB045170BD0EF0004E75
:100CE8004EEA113114EB5C04C2BFD4EB0C0541EAA7
:100CF800045170BD41F480114FF0000E013C90E6A4
:100D080045EA060E8DE60CEA135594EA0C0F08BF67
:100D180095EA0C0F3FF43BAF94EA0C0F0AD150EA66
:100D280001347FF434AF95EA0C0F7FF425AF1046F9
:100D380019462CE795EA0C0F06D152EA03353FF421
:100D4800FDAE1046194622E750EA410618BF52EA9E
:100D580043067FF4C5AE50EA41047FF40DAF52EA72
:100D680043057FF4EBAE12E74FF0FF3C06E000BF0F
:100D78004FF0010C02E000BF4FF0010C4DF804CD1C
:100D88004FEA410C7FEA6C5C4FEA430C18BF7FEADC
:100D98006C5C1BD001B050EA410C0CBF52EA430C0A
:100DA80091EA030F02BF90EA020F0020704710F18A
:100DB800000F91EA030F58BF994208BF90422CBF19
:100DC800D8176FEAE37040F0010070474FEA410C12
:100DD8007FEA6C5C02D150EA013C07D14FEA430C30
:100DE8007FEA6C5CD6D152EA033CD3D05DF8040BA1
:100DF800704700BF8446104662468C4619466346D3
:100E080000E000BF01B5FFF7B7FF002848BF10F1A9
:100E1800000F01BD4DF808EDFFF7F4FF0CBF0120EE
:100E280000205DF808FB00BF4DF808EDFFF7EAFF6A
:100E380034BF012000205DF808FB00BF4DF808ED25
:100E4800FFF7E0FF94BF012000205DF808FB00BF1A
:100E58004DF808EDFFF7CEFF94BF012000205DF8A4
:100E680008FB00BF4DF808EDFFF7C4FF34BF0120B1
:100E780000205DF808FB00BF4FEA410212F500129E
:100E880015D211D56FF47873B3EB625212D94FEAC9
:100E9800C12343F0004343EA505311F0004F23FAB3
:100EA80002F018BF404270474FF00000704750EA08
:100EB800013005D111F0004008BF6FF000407047C5
:100EC8004FF00000704700BF80F0004002E000BF14
:100ED80081F0004142001FBF5FEA410392EA030F1D
:100EE8007FEA226C7FEA236C6AD04FEA1262D2EB67
:100EF8001363C1BFD218414048404140B8BF5B426C
:100F0800192B88BF704710F0004F40F4000020F004
:100F18007F4018BF404211F0004F41F4000121F01A
:100F28007F4118BF494292EA030F3FD0A2F1010264
:100F380041FA03FC10EB0C00C3F1200301FA03F1A2
:100F480000F0004302D5494260EB4000B0F5000FC5
:100F580013D3B0F1807F06D340084FEA310102F184
:100F68000102FE2A51D2B1F1004F40EBC25008BF36
:100F780020F0010040EA03007047490040EB000000
:100F8800013A28BFB0F5000FEDD2B0FA80FCACF101
:100F9800080CB2EB0C0200FA0CF0AABF00EBC2502E
:100FA80052421843BCBFD0401843704792F0000F1C
:100FB80081F4000106BF80F400000132013BB5E76F
:100FC8004FEA41037FEA226C18BF7FEA236C21D0E5
:100FD80092EA030F04D092F0000F08BF084670474A
:100FE80090EA010F1CBF0020704712F07F4F04D118
:100FF800400028BF40F00040704712F100723CBF2B
:1010080000F50000704700F0004343F0FE4040F454
:10101800000070477FEA226216BF08467FEA236312
:101028000146420206BF5FEA412390EA010F40F4FD
:10103800800070474FF0000304E000BF10F0004349
:1010480048BF40425FEA000C08BF704743F0964330
:1010580001464FF000001CE050EA010208BF70474B
:101068004FF000030AE000BF50EA010208BF7047D2
:1010780011F0004302D5404261EB41015FEA010CE7
:1010880002BF84460146002043F0B64308BFA3F1DF
:101098008053A3F50003BCFA8CF2083AA3EBC253C1
:1010A80010DB01FA02FC634400FA02FCC2F12002E0
:1010B800BCF1004F20FA02F243EB020008BF20F017
:1010C8000100704702F1200201FA02FCC2F120027D
:1010D80050EA4C0021FA02F243EB020008BF20EA72
:1010E800DC7070474FF0FF0C1CEAD0521EBF1CEAA0
:1010F800D15392EA0C0F93EA0C0F6FD01A4480EA8E
:10110800010C400218BF5FEA41211ED04FF0006376
:1011180043EA501043EA5111A0FB01310CF00040A2
:10112800B1F5000F3EBF490041EAD3715B0040EAC8
:10113800010062F17F02FD2A1DD8B3F1004F40EB98
:10114800C25008BF20F00100704790F0000F0CF06B
:10115800004C08BF49024CEA502040EA51207F3A2F
:10116800C2BFD2F1FF0340EAC250704740F400000A
:101178004FF00003013A5DDC12F1190FDCBF00F0FB
:1011880000407047C2F10002410021FA02F1C2F1A9
:10119800200200FA02FC5FEA310040F1000053EA45
:1011A8004C0308BF20EADC70704792F0000F00F093
:1011B800004C02BF400010F4000F013AF9D040EA99
:1011C8000C0093F0000F01F0004C02BF490011F42D
:1011D800000F013BF9D041EA0C018FE70CEAD1532B
:1011E80092EA0C0F18BF93EA0C0F0AD030F0004CAB
:1011F80018BF31F0004CD8D180EA010000F000405F
:10120800704790F0000F17BF90F0004F084691F01C
:10121800000F91F0004F14D092EA0C0F01D1420256
:101228000FD193EA0C0F03D14B0218BF084608D11F
:1012380080EA010000F0004040F0FE4040F4000069
:10124800704740F0FE4040F4400070474FF0FF0CFC
:101258001CEAD0521EBF1CEAD15392EA0C0F93EA43
:101268000C0F69D0A2EB030280EA010C49024FEA95
:10127800402037D04FF0805343EA111143EA10134E
:101288000CF000408B4238BF5B0042F17D024FF406
:10129800000C8B4224BF5B1A40EA0C00B3EB510FE1
:1012A80024BFA3EB510340EA5C00B3EB910F24BFCA
:1012B800A3EB910340EA9C00B3EBD10F24BFA3EB4F
:1012C800D10340EADC001B0118BF5FEA1C1CE0D117
:1012D800FD2A3FF650AF8B4240EBC25008BF20F0CA
:1012E800010070470CF0004C4CEA50207F32C2BF1E
:1012F800D2F1FF0340EAC250704740F400004FF0BB
:101308000003013A37E792F0000F00F0004C02BFEB
:10131800400010F4000F013AF9D040EA0C0093F0B5
:10132800000F01F0004C02BF490011F4000F013B0F
:10133800F9D041EA0C0195E70CEAD15392EA0C0F77
:1013480008D142027FF47DAF93EA0C0F7FF470AFAF
:10135800084676E793EA0C0F04D14B023FF44CAFF2
:1013680008466EE730F0004C18BF31F0004CCAD187
:1013780030F000427FF45CAF31F000437FF43CAFC3
:101388005FE700BF4FEA4002B2F1FE4F0FD34FF0C4
:101398009E03B3EB12620DD94FEA002343F00043DA
:1013A80010F0004F23FA02F018BF404270474FF088
:1013B8000000704712F1610F01D1420205D110F00F
:1013C800004008BF6FF0004070474FF000007047C2
:1013D80042000ED2B2F1FE4F0BD34FF09E03B3EB97
:1013E800126209D44FEA002343F0004323FA02F0C3
:1013F80070474FF00000704712F1610F01D14202AF
:1014080002D14FF0FF3070474FF00000704700BF27
:1014180053B94AB9002908BF00281CBF4FF0FF3153
:101428004FF0FF3000F06AB9ADF1080C6DE904CE59
:1014380000F006F8DDF804E0DDE9022304B07047A7
:101448002DE9F047089D0C46002B4ED194468C455B
:101458008646B2FA82F262D94AB1C2F120039140BB
:1014680020FA03F30CFA02FC194300FA02FE4FEAD1
:101478001C471FFA8CF6B1FBF7F44FEA1E4307FB33
:10148800141143EA014304FB06F199420AD91CEB03
:10149800030304F1FF3080F01281994240F20F817A
:1014A800023C6344591A1FFA8EF3B1FBF7F007FBAD
:1014B800101143EA014300FB06F69E420AD91CEBD1
:1014C800030300F1FF3180F0FC809E4240F2F98076
:1014D800634402389B1B40EA044000211DB1D340FD
:1014E8000022C5E90032BDE8F0878B4205D90DB16D
:1014F800C5E9000100210846F5E7B3FA83F10029A0
:1015080046D1A34202D39042C0F0F080861A64EB21
:1015180003030120002DE6D0C5E90063E3E7002AB4
:1015280040F09080A1EB0C044FEA1C481FFA8CF79E
:101538000121B4FBF8F64FEA1E4308FB164443EAC0
:10154800044307FB06F0984208D91CEB030306F195
:10155800FF3402D2984200F2CD8026461C1A1FFAA8
:101568008EF3B4FBF8F008FB104443EA044300FB95
:1015780007F79F4208D91CEB030300F1FF3402D29E
:101588009F4200F2B0802046DB1B40EA0640A5E7F8
:10159800C1F120068B4022FA06F71F4320FA06FC09
:1015A80004FA01F343EA0C03F44000FA01F8380C9A
:1015B8004FEA1349B4FBF0FE1FFA87FC00FB1E44F8
:1015C80049EA04440EFB0CF9A14502FA01F20AD9D2
:1015D8003C190EF1FF3A80F08480A14540F28180E9
:1015E800AEF1020E3C44A4EB09041FFA83F9B4FBE4
:1015F800F0F300FB134449EA044403FB0CFCA44544
:1016080007D93C1903F1FF3067D2A44565D9023BDD
:101618003C4443EA0E40A0FB0293A4EB0C049C421A
:10162800CE469C4651D34ED055B1B8EB0E0364EB71
:101638000C0404FA06F6CB401E43CC40C5E900640E
:10164800002150E7C2F1200320FA03F10CFA02FC52
:1016580024FA03F394400C434FEA1C4800FA02FEB4
:101668001FFA8CF7B3FBF8F008FB1031230C43EAA0
:10167800014300FB07F1994208D91CEB030300F171
:10168800FF362CD299422AD9023863445B1AA4B295
:10169800B3FBF8F108FB113344EA034401FB07F3F9
:1016A800A34208D91CEB040401F1FF3613D2A3426C
:1016B80011D902396444E41A41EA004139E7044681
:1016C800F0E6084606E7C845AED2B9EB020E63EB72
:1016D800070C0138A8E73146EDE7034699E730469D
:1016E800D4E7D6467FE7634402384DE706462346EB
:1016F80008460FE7023E634430E700BF704700BF6B
:1017080080B485B000AF78604FF0B043DA6C4FF02A
:10171800B0417B681343CB644FF0B043DA6C7B680D
:101728001340FB60FB6800BF1437BD4680BC7047A0
:1017380080B485B000AF78604FF0B0431A6E4FF0B8
:10174800B0417B6813430B664FF0B0431A6E7B6859
:101758001340FB60FB6800BF1437BD4680BC704770
:1017680080B483B000AF78604FF0B0431A6E7B68E6
:10177800DB434FF0B04113400B6600BF0C37BD464A
:1017880080BC704780B584B000AF3B1D00221A6052
:101798005A609A6040F2F462C2F200024FF41053A9
:1017A800C4F20103136040F2F463C2F200034FF085
:1017B80000425A6040F2F463C2F2000300229A60C9
:1017C80040F2F463C2F200030022DA6040F2F463EC
:1017D800C2F2000300221A6140F2F463C2F200036D
:1017E80004225A6140F2F463C2F2000300221A761E
:1017F80040F2F463C2F2000300225A7640F2F46326
:10180800C2F2000301229A7640F2F463C2F20003A6
:101818000122DA6140F2F463C2F20003002283F885
:10182800202040F2F463C2F2000300225A6240F220
:10183800F463C2F2000300229A6240F2F463C2F237
:101848000003002283F82C2040F2F463C2F2000364
:101858004FF480521A6340F2F463C2F20003072285
:101868005A6340F2F463C2F2000307229A6340F21B
:10187800F463C2F20003002283F83C2040F2F463D0
:10188800C2F200030022DA6440F2F460C2F20000FF
:1018980005F042FD0346002B01D001F072F8082341
:1018A800C0F600437B600023BB600023FB603B1D48
:1018B800194640F2F460C2F2000006F0EBFB034662
:1018C800002B01D001F05DF800BF1037BD4680BD88
:1018D80080B588B000AF786007F10C0300221A6069
:1018E8005A609A60DA601A617B681A684FF410537C
:1018F800C4F201039A4215D14FF40070FFF718FFA4
:101908000220FFF7FDFE1023FB6003233B61002349
:101918007B6107F10C0319464FF48060C4F60000A0
:1019280009F0E9FE00BF2037BD4680BD80B582B012
:1019380000AF78607B681A684FF41053C4F2010353
:101948009A420AD14FF40070FFF70AFF10214FF4B2
:101958008060C4F600000AF047F800BF0837BD46AB
:1019680080BD80B400AF40F2F462C2F200024FF4CE
:101978001053C4F20103136000BFBD4680BC70471A
:1019880080B400AF00BFBD4680BC704780B582B050
:1019980000AF00233B8000237B6000F07CF8034607
:1019A8007B804FF48050CBF2000000F07FF8786025
:1019B80047F2C853C1F6FF731A8847F2A853C1F615
:1019C800FF731B889A4237D047F2C853C1F6FF739A
:1019D8001A8847F2A853C1F6FF731B889A4227D08A
:1019E8007B887A6802FB03F39A089F23C0F6EE13FC
:1019F800A3FB02235B091A4647F2A853C1F6FF73FB
:101A08001B88D31A642203FB02F247F2C853C1F6BB
:101A1800FF731B88194647F2A853C1F6FF731B884A
:101A2800CB1A92FBF3F39BB21E339BB21BB201E0BD
:101A380047F6FF733B8023E07B887A6803FB02F25A
:101A480040F20113C0F21003A3FB0213D21A52088A
:101A58001344DB0A4FF47A7202FB03F3A3F539232C
:101A6800A3F50C6348F6AD32C6F6DB0282FB03121F
:101A78009212DB17D31A9BB21E339BB21BB23B8068
:101A88003B881BB21B021BB23B803B881BB218462B
:101A98000837BD4680BD80B500AF0820C0F60040BD
:101AA80000F004F803469BB2184680BD80B586B0A6
:101AB80000AF786000237B6107F1080300221A60F9
:101AC8005A609A60FFF75EFE40F2F460C2F20000CE
:101AD80007F02FF80346002B01D000F052FF7B6877
:101AE800BB600023FB6000233B6107F10803194634
:101AF80040F2F460C2F2000006F0CCFA0346002B74
:101B080001D000F03EFF40F2F460C2F2000005F0A0
:101B180041FE0346002B01D000F033FF4FF0FF31A8
:101B280040F2F460C2F2000005F0ACFE40F2F4604E
:101B3800C2F2000005F074FE40F2F460C2F2000048
:101B480006F05EF9786140F2F460C2F2000005F038
:101B58007EFD7B6918461837BD4680BD80B485B0C8
:101B680000AF78604FF0B0439A6C4FF0B0417B689B
:101B780013438B644FF0B0439A6C7B681340FB604F
:101B8800FB6800BF1437BD4680BC704780B500AF06
:101B98000420FFF7E3FF0120FFF7E0FF0022022106
:101BA8000B2007F02EFB0B2007F045FB002200213D
:101BB8000C2007F026FB0C2007F03DFB002200213B
:101BC8003D2007F01EFB3D2007F035FB00BF80BD20
:101BD80080B485B000AF78600023FB7340F258737F
:101BE800C2F200037A681A6097F90F301846143762
:101BF800BD4680BC704780B483B000AF0023FB7142
:101C080040F25873C2F2000300221A6097F90730B5
:101C180018460C37BD4680BC704780B586B000AF0B
:101C2800F860B9607A60FF23FB75FB68B3F1006F59
:101C380017D347F2E053C1F6FF731B689A024FF4BB
:101C48007C43C0F2FF33134003F10063013BFA68A1
:101C5800934206D37A68B968F86800F05AF80346E0
:101C6800FB7597F9173018461837BD4680BD80B503
:101C780086B000AFF860B9607A60FF23FB75BB6877
:101C8800B3F1006F17D347F2E053C1F6FF731B6837
:101C98009A024FF47C43C0F2FF33134003F1006310
:101CA800013BBA68934206D37A68B968F86800F0CD
:101CB80049F90346FB7597F9173018461837BD469A
:101CC80080BD80B584B000AF78603960FF23FB73B6
:101CD8007B68B3F1006F16D347F2E053C1F6FF7388
:101CE8001B689A024FF47C43C0F2FF33134003F1A0
:101CF8000063013B7A68934205D33968786800F03D
:101D08003FF90346FB7397F90F3018461037BD4665
:101D180080BD80B590B000AFF860B9607A600023EC
:101D280087F83F30FB68BB63BB687B637B683B63BA
:101D3800FB68002B0CD0BB68002B09D07B6803F034
:101D48000703002B04D1FB6803F00703002B02D024
:101D58006FF00503F2E000F0ABF9034687F83F3077
:101D680097F93F30002B40F0E78008F0EDFE03467E
:101D7800002B40F0DE80BB6B03F1784247F2E05362
:101D8800C1F6FF731B6899024FF47C43C0F2FF331E
:101D98000B40B2FBF3F101FB03F3D31ADB0ABB617F
:101DA800BA6B7B68134403F17842013A47F2E05377
:101DB800C1F6FF731B6899024FF47C43C0F2FF33EE
:101DC8000B40B2FBF3F101FB03F3D31ADA0ABB6948
:101DD800D31A01337B617B69012B05D9BB6BC3F334
:101DE8000A03C3F500633B63BB69FB6295E0FB6ACA
:101DF80003F58033DB023B61396BF86800F032F998
:101E08000346002B3DD040F25873C2F200031B6812
:101E1800002B03D1FA2387F83F3087E040F258734C
:101E2800C2F200031B6839694FF40062184600F0DB
:101E380089F840F25873C2F200031A68BB6BC3F307
:101E48000A031344796B3A6B92B2184637F04BF990
:101E58003B694FF40061184600F092F80346002BE6
:101E680003D0FE2387F83F3060E03B697B6240F295
:101E78005873C2F200031B683B624FF40063FB61B6
:101E880005E0BB6B7B627B6B3B623B6BFB610023BA
:101E9800BB6226E03A6ABB6A1344D3E90023796A35
:101EA800012008F09EFC0346002B13D17B6AD3E97E
:101EB80000013A6ABB6A1344D3E90023994208BF78
:101EC800904203D0FC2387F83F300EE07B6A08334A
:101ED8007B6203E0FC2387F83F3006E0BB6A0833E7
:101EE800BB62BA6AFB699A42D4D397F93F30002B98
:101EF8001BD1BA6B3B6B1344BB637A6B3B6B1344CC
:101F08007B637A683B6BD31AB3F5006F28BF4FF435
:101F180000633B63FB6A0133FB62BA697B69134464
:101F2800FA6A9A42FFF463AF00E000BF08F039FE96
:101F380002E0FB2387F83F3097F93F3018464037D7
:101F4800BD4680BD80B586B000AFF860B9607A60E4
:101F58000023FB75FB68002B02D0BB68002B02D165
:101F68006FF0050308E07B689BB21A46B968F86809
:101F780037F0B9F897F9173018461837BD4680BDBD
:101F880080B588B000AF786039600023FB77012303
:101F9800BB7700237B617B68BB617B68002B02D128
:101FA8006FF005035AE000F083F80346FB7797F9D2
:101FB8001F30002B50D108F0C7FD0346002B49D134
:101FC8000223BB60BB6903F1784247F2E053C1F6D4
:101FD800FF731B6899024FF47C43C0F2FF330B4038
:101FE800B2FBF3F101FB03F3D31ADB0AFB60BA6916
:101FF8003B68134403F17842013A47F2E053C1F6D3
:10200800FF731B6899024FF47C43C0F2FF330B4007
:10201800B2FBF3F101FB03F3D31ADA0AFB68D31A14
:1020280001333B6107F1140207F108031146184612
:1020380008F02AFF0346BB77BB7F002B07D0BB7F86
:10204800022B01D1012301E06FF00103FB7708F0B7
:10205800A8FD01E0FB23FB7797F91F3018462037CE
:10206800BD4680BD80B485B000AF7860396000237C
:10207800FB600023BB6011E07B68D3E90023B3F168
:10208800FF3F08BFB2F1FF3F02D00123FB6009E028
:102098007B6808337B60BB680833BB60BA683B6801
:1020A8009A42E9D3FB6818461437BD4680BC70478E
:1020B80080B582B000AFFB23FB7108F045FD0346F5
:1020C800002B19D14FF48043C5F600039A694FF4E9
:1020D8008043C5F6000342F040429A614FF48043C2
:1020E800C5F600034CF2FA321A6108F05AFD0346AD
:1020F800002B01D10023FB7197F9073018460837E8
:10210800BD4680BD80B483B000AF786000BF0C3797
:10211800BD4680BC704780B483B000AF786000BF14
:102128000C37BD4680BC704780B485B000AF78607E
:102138004FF0B043DA6C4FF0B0417B681343CB6487
:102148004FF0B043DA6C7B681340FB60FB6800BF5C
:102158001437BD4680BC704780B586B000AF3B1DC4
:1021680000221A605A609A60DA601A610120FFF74B
:10217800DBFF0220FFF7D8FF0420FFF7D5FF00227E
:102188004FF4C5614FF48060C4F6000009F02CFDDF
:10219800002240F231214FF0904009F025FD28231C
:1021A8007B600123BB600023FB6003233B613B1D75
:1021B80019464FF48060C4F6000009F09CFA4FF409
:1021C800C0637B600123BB600023FB6000233B618D
:1021D8003B1D19464FF48060C4F6000009F08BFAE5
:1021E80031237B600123BB600023FB6003233B6139
:1021F8003B1D19464FF0904009F07DFA4FF40073EB
:102208007B600123BB600023FB6000233B613B1D17
:1022180019464FF0904009F06EFA00BF1837BD46D6
:1022280080BD80B485B000AF78604FF0B043DA6C01
:102238004FF0B0417B681343CB644FF0B043DA6C86
:102248007B681340FB60FB6800BF1437BD4680BC49
:10225800704780B485B000AF78604FF0B0439A6D96
:102268004FF0B0417B6813438B654FF0B0439A6DD4
:102278007B681340FB60FB6800BF1437BD4680BC19
:10228800704780B483B000AF78604FF0B0439A6D68
:102298007B68DB434FF0B04113408B6500BF0C37C0
:1022A800BD4680BC704780B500AF40F25C72C2F298
:1022B80000024FF4B043C4F20003136040F25C72B2
:1022C800C2F2000243F2FF73C0F23003536040F2DF
:1022D8005C73C2F2000300229A6040F25C73C2F29F
:1022E80000030122DA6040F25C73C2F200030022AC
:1022F8001A6140F25C73C2F2000300225A6140F294
:102308005C73C2F2000300229A6140F25C73C2F26D
:1023180000030022DA6140F25C73C2F2000300227B
:102328001A6240F25C70C2F2000009F0EFFC03464A
:10233800002B01D000F025FB002140F25C70C2F2B6
:1023480000000EF0E1FC0346002B01D000F019FB61
:10235800002140F25C70C2F200000EF01FFD03463F
:10236800002B01D000F00DFB00BF80BD80B596B0FA
:1023780000AF786007F1440300221A605A609A603F
:10238800DA601A6107F10C0338220021184639F087
:10239800A6FF7B681A684FF4B043C4F200039A4260
:1023A8004ED18023FB604FF440237B6207F10C037E
:1023B800184613F05EF90346002B01D000F0E1FA4D
:1023C8000120FFF72EFF0220FFF72BFF4FF40043F9
:1023D8007B641223BB640123FB6401233B65042354
:1023E8007B6507F1440319464FF0904009F083F9E3
:1023F8004FF400437B641223BB640123FB64012375
:102408003B6504237B6507F1440319464FF480605C
:10241800C4F6000009F06FF94FF48000FFF719FFC8
:1024280000220021202006F0ECFE202006F003FF09
:1024380000220021212006F0E4FE212006F0FBFE08
:1024480000BF5837BD4680BD80B582B000AF786008
:102458007B681A684FF4B043C4F200039A4217D15C
:102468004FF48000FFF70DFF4FF400414FF090400C
:1024780009F0BAFA4FF400414FF48060C4F6000046
:1024880009F0B2FA202006F0E4FE212006F0E1FE71
:1024980000BF0837BD4680BD80B485B000AF786006
:1024A8004FF0B0439A6D4FF0B0417B6813438B6592
:1024B8004FF0B0439A6D7B681340FB60FB6800BF28
:1024C8001437BD4680BC704780B483B000AF7860D5
:1024D8004FF0B0439A6D7B68DB434FF0B041134037
:1024E8008B6500BF0C37BD4680BC704780B500AF18
:1024F80040F2B072C2F200024FF4F843C4F2000393
:10250800136040F2B073C2F2000300225A6040F236
:10251800B073C2F200034FF460629A6040F2B07385
:10252800C2F200034FF6FF725A6140F2B073C2F272
:10253800000300221A6240F2B073C2F200030022C4
:102548005A6240F2B073C2F2000300229A6240F26B
:10255800B073C2F200030022DA6240F2B073C2F232
:10256800000300221A6340F2B070C2F200000EF0BD
:102578007AFD0346002B01D000F003FA00BF80BDAE
:1025880080B590B000AF786007F1080338220021C9
:10259800184639F0A4FE7B681A684FF4F843C4F271
:1025A80000039A421BD14FF40073BB604FF00C1329
:1025B800BB6207F10803184613F05BF80346002BCB
:1025C80001D000F0DEF94FF00040FFF765FF002270
:1025D8000021272006F015FE272006F02CFE00BF5C
:1025E8004037BD4680BD80B582B000AF78607B685B
:1025F8001A684FF4F843C4F200039A4206D14FF028
:102608000040FFF761FF272006F023FE00BF0837D0
:10261800BD4680BD80B483B000AF78604FF0B04352
:10262800D3F8903023F018024FF0B0417B68134381
:10263800C1F8903000BF0C37BD4680BC704780B5EC
:1026480000AF04F0D2F900F028F8FFF785FD20F07C
:102658004DFB01F006FEFFF726FE00F01FFCFFF71A
:1026680045FF00F09AF900F030FA00224FF40071AB
:102678004FF0904009F0B8FA00224FF4807140F210
:10268800B070C2F200000FF079FB20F037FB00F0C9
:10269800D9F90346984700BFF7E780B59AB000AF6D
:1026A80007F1200348220021184639F018FE07F1E7
:1026B800080300221A605A609A60DA601A615A6147
:1026C80010F0B8F90020FFF7A5FF4FF48063C5F6B6
:1026D80000031B6823F4C0624FF48063C5F600034F
:1026E80042F400721A604FF48063C5F600031B6859
:1026F80003F4C0637B607B6805233B624FF40413DB
:102708007B628123FB620023BB620023FB6407F129
:102718002003184611F041FD0346002B01D000F0BC
:1027280030F94F23BB600223FB6000233B61002389
:102738007B610023BB610023FB6107F108030121D2
:10274800184612F0AFF80346002B01D000F019F933
:1027580000BF6837BD4680BD80B592B000AF20236A
:1027680087F8473003F0F1F997F8472007F1240379
:102778001146184603F0CEF8202387F8463097F81C
:1027880046203B1D1146184603F081F802F0B2F9C5
:1027980000BF4837BD4680BD80B500AF02F0F4F9F0
:1027A80000BF80BD80B586B004AFBB1C039340F268
:1027B800F473C2F2000302933B1D0193BB1D009307
:1027C80040F2F273C2F2000340F2F072C2F2000269
:1027D80040F2EC71C2F2000140F2EE70C2F2000069
:1027E80002F03BFAB7F904301846FEF741F84FF00B
:1027F80000024FF00003C4F26903FEF7CDF9024668
:102808000B461046194640F2F873C2F20003C3E9BA
:10281800000140F2F873C2F20003D3E9000140F668
:102828000003C2F20003C3E90001B7F906301846F5
:10283800FEF704FC03460021C4F2C8211846FEF73F
:1028480005FD03461A4640F60803C2F200031A6063
:1028580000BF0837BD4680BD80B582B000AF786044
:102868007A6840F2B073C2F200039A4240F0868060
:1028780040F61003C2F200031B684B2B47D04B2BCA
:102888004EDC4A2B3CD04A2B4ADC3B2B31D03B2B2D
:1028980046DC002B02D0012B24D041E040F2090392
:1028A800C2F200031B78002B0DD001224FF40071F7
:1028B8004FF0904009F098F940F20903C2F2000382
:1028C80000221A702BE040F2F773C2F200031B7863
:1028D8008F2B24D901224FF400714FF0904009F05A
:1028E80083F91CE042F26170C0F6000000F067F85E
:1028F80016E042F2AD70C0F6000000F060F80FE09C
:1029080042F2A170C0F6000000F059F808E0002279
:102918004FF400714FF0904009F066F900E000BFF5
:1029280040F20603C2F200031B88002B07D10022E5
:102938004FF400714FF0904009F056F91EE040F650
:102948001003C2F200031B685A1C40F61003C2F2BF
:1029580000031A6040F61003C2F200031A6840F23E
:102968000603C2F200031B8892FBF3F101FB03F399
:10297800D21A40F61003C2F200031A600837BD46A7
:1029880080BD80B400AF72B600BF00BFFDE780B461
:1029980000AF00BFBD4680BC704780B400AF40F6B2
:1029A8001403C2F2000300221A6040F61803C2F2B0
:1029B800000300221A6000BFBD4680BC704780B487
:1029C80083B000AF786040F61403C2F200031B68BE
:1029D80001335A4203F00F0302F00F0258BF53426B
:1029E80040F61802C2F200021268934201D1012394
:1029F80023E040F61403C2F200031A68511C40F6A3
:102A08001403C2F20003196040F61C03C2F200036B
:102A1800796843F8221040F61403C2F200031B68D9
:102A28005A4203F00F0302F00F0258BF534240F618
:102A38001402C2F200021360002318460C37BD4688
:102A480080BC704780B483B000AF40F61403C2F274
:102A580000031A6840F61803C2F200031B689A4282
:102A680004D142F69713C0F6000323E040F618039A
:102A7800C2F200031A68511C40F61803C2F20003A0
:102A8800196040F61C03C2F2000353F822307B6041
:102A980040F61803C2F200031B685A4203F00F0302
:102AA80002F00F0258BF534240F61802C2F2000269
:102AB80013607B6818460C37BD4680BC704780B4ED
:102AC80000AF00BFBD4680BC704780B400AF40F681
:102AD8005C03C2F2000300221A6040F66003C2F2EF
:102AE800000300221A6000BFBD4680BC704780B456
:102AF80083B000AF786040F65C03C2F200031B6845
:102B080001335A4203F00F0302F00F0258BF534239
:102B180040F66002C2F200021268934201D101231A
:102B280023E040F65C03C2F200031A68511C40F629
:102B38005C03C2F20003196040F66403C2F20003AA
:102B4800796843F8221040F65C03C2F200031B6860
:102B58005A4203F00F0302F00F0258BF534240F6E7
:102B68005C02C2F200021360002318460C37BD460F
:102B780080BC704780B483B000AF40F65C03C2F2FB
:102B880000031A6840F66003C2F200031B689A4209
:102B980004D142F6C723C0F6000323E040F66003E1
:102BA800C2F200031A68511C40F66003C2F2000327
:102BB800196040F66403C2F2000353F822307B60C8
:102BC80040F66003C2F200031B685A4203F00F0389
:102BD80002F00F0258BF534240F66002C2F20002F0
:102BE80013607B6818460C37BD4680BC704780B4BC
:102BF80000AF4FF0B043D3F890304FF0B04243F4F9
:102C08000043C2F8903000BFBD4680BC704780B416
:102C180000AF4FF0B043D3F890304FF0B04223F4F8
:102C28000043C2F8903000BFBD4680BC704780B4F6
:102C380085B000AF78604FF0B0439A6D4FF0B04167
:102C48007B6813438B654FF0B0439A6D7B681340E4
:102C5800FB60FB6800BF1437BD4680BC704780B47A
:102C680083B000AF78604FF0B0439A6D7B68DB4368
:102C78004FF0B04113408B6500BF0C37BD4680BC98
:102C8800704780B58CB000AF3B1D2C220021184640
:102C980039F025FB40F6A402C2F200024FF420539B
:102CA800C4F20003136040F6A403C2F200031F221B
:102CB8009A6040F6A403C2F2000300221A6140F6AB
:102CC800A403C2F2000300225A6140F6A403C2F230
:102CD800000300229A6140F6A403C2F200034FF0F9
:102CE8008042DA6140F6A403C2F2000300221A62AD
:102CF80040F6A403C2F200034FF480725A6240F611
:102D0800A400C2F2000013F0B5FC0346002B01D06A
:102D1800FFF737FE40F6A400C2F2000015F013FEDC
:102D28000346002B01D0FFF72CFE00233B62002353
:102D3800BB600023BB614FF00053FB614FF480730D
:102D4800FB623B1D0022194640F6A400C2F20000B7
:102D580014F0E4F90346002B01D0FFF712FE00BF80
:102D68003037BD4680BD80B590B000AF786007F1C0
:102D7800080338220021184639F0B1FA7B681A682E
:102D88004FF42053C4F200039A4225D14FF4803304
:102D9800BB604FF48073FB6307F10803184612F019
:102DA80068FC0346002B01D0FFF7EBFDFFF71FFF80
:102DB8004FF48060FFF73BFF00220021022006F05D
:102DC80020FA022006F037FA002200212A2006F015
:102DD80018FA2A2006F02FFA00BF4037BD4680BDFA
:102DE80080B582B000AF78607B681A684FF42053D2
:102DF800C4F200039A420BD1FFF709FF4FF4806039
:102E0800FFF72DFF022006F024FA2A2006F021FA07
:102E180000BF0837BD4680BD80B485B000AF78607C
:102E28004FF0B043DA6C4FF0B0417B681343CB648A
:102E38004FF0B043DA6C7B681340FB60FB6800BF5F
:102E48001437BD4680BC704780B485B000AF786049
:102E58004FF0B0439A6D4FF0B0417B6813438B65D8
:102E68004FF0B0439A6D7B681340FB60FB6800BF6E
:102E78001437BD4680BC704780B483B000AF78601B
:102E88004FF0B0439A6D7B68DB434FF0B04113407D
:102E98008B6500BF0C37BD4680BC704780B500AF5E
:102EA80040F6DC02C2F200024FF46053C4F20003A1
:102EB800136040F6DC03C2F200034FF482725A60DA
:102EC80040F6DC03C2F2000300229A6040F6DC03FD
:102ED800C2F200034FF4E062DA6040F6DC03C2F2AB
:102EE800000300221A6140F6DC03C2F2000300224C
:102EF8005A6140F6DC03C2F200034FF400729A6193
:102F080040F6DC03C2F200031822DA6140F6DC0363
:102F1800C2F2000300221A6240F6DC03C2F2000388
:102F280000225A6240F6DC03C2F2000300229A62D1
:102F380040F6DC03C2F200030722DA6240F6DC0343
:102F4800C2F2000300221A6340F6DC03C2F2000357
:102F580008225A6340F6DC00C2F2000016F09CF921
:102F68000346002B01D0FFF70CFD00BF80BD80B5E4
:102F780088B000AF786007F10C0300221A605A602D
:102F88009A60DA601A617B681A684FF46053C4F279
:102F980000039A422FD14FF48040FFF755FF0220DB
:102FA800FFF73AFF0120FFF737FF4FF4C043FB60FC
:102FB80002233B6100237B610023BB610523FB6186
:102FC80007F10C0319464FF48060C4F6000008F0BE
:102FD80092FB4FF48063FB6002233B6100237B611B
:102FE8000023BB610523FB6107F10C0319464FF071
:102FF800904008F080FB00BF2037BD4680BD80B5FB
:1030080082B000AF78607B681A684FF46053C4F2EE
:1030180000039A4211D14FF48040FFF72DFF4FF47F
:10302800C0414FF48060C4F6000008F0DDFC4FF4A6
:1030380080614FF0904008F0D7FC00BF0837BD46CC
:1030480080BD80B400AF4FF48063C5F60003012251
:10305800C3F8882000BFBD4680BC704780B400AF6D
:1030680000BFBD4680BC704780B400AF00BFBD46FE
:1030780080BC704780B500AF03F0F0FDFFF7E1FFBB
:10308800012010F0AFFC00BF80BD80B500AF03F099
:10309800F7FD01F0D3FB00BF80BD80B500AF03F0A2
:1030A800DDFD012100200FF091FD00BF80BD80B53E
:1030B80000AF03F0E5FD00BF80BD80B400AF00BFE6
:1030C800BD4680BC704780B400AF00BFFDE780B448
:1030D80000AF00BFFDE780B400AF00BFFDE780B4DC
:1030E80000AF00BFFDE780B400AF00BFFDE780B4CC
:1030F80000AF00BFBD4680BC704780B400AF00BFC2
:10310800BD4680BC704780B400AF00BFBD4680BCE0
:10311800704780B400AF00BFBD4680BC704780B523
:1031280000AF40F6A400C2F2000015F09EFC00BFFC
:1031380080BD80B500AF40F6A820C2F2000006F0BE
:103148004BFD00BF80BD80B500AF40F60830C2F22D
:10315800000006F041FD00BF80BD80B500AF40F221
:103168005C70C2F200000BF086FD00BF80BD80B528
:1031780000AF40F25C70C2F200000BF096FD00BF99
:1031880080BD80B500AF40F68010C2F200001BF091
:103198003AFD00BF80BD80B500AF40F61420C2F2F2
:1031A80000001BF030FD00BF80BD80B500AF40F2CD
:1031B800B070C2F200000FF09CF800BF80BD80B56F
:1031C80000AF40F6A400C2F2000014F045FA00BFB8
:1031D80080BD80B500AF40F64010C2F2000019F083
:1031E8003FFF00BF80BD80B500AF40F60830C2F297
:1031F800000006F0E3FF00BF80BD80B485B000AFDB
:1032080078604FF0B0435A6E4FF0B0417B6813437B
:103218004B664FF0B0435A6E7B681340FB60FB6807
:1032280000BF1437BD4680BC704780B483B000AF80
:1032380078604FF0B0435A6E7B68DB434FF0B04183
:1032480013404B6600BF0C37BD4680BC704780B545
:1032580000AF40F64013C2F2000308221A6040F69D
:103268004010C2F2000019F0F4FB0346002B01D015
:10327800FFF787FB00BF80BD80B582B000AF7860E4
:103288000120FFF7BAFF00220021322005F0B9FF24
:10329800322005F0D0FF00BF0837BD4680BD80B59D
:1032A80082B000AF78600120FFF7BFFF322005F041
:1032B800D0FF00BF0837BD4680BD80B483B000AFE3
:1032C80078604FF0B0439B6823F400424FF0B04160
:1032D8007B6813438B6000BF0C37BD4680BC7047CA
:1032E80080B400AF4FF4EB43C1F6FF731B68184678
:1032F800BD4680BC704780B400AF47F28453C1F626
:10330800FF731B68DBB21846BD4680BC704780B4AB
:1033180000AF47F28453C1F6FF731B681B0A1846B7
:10332800BD4680BC704780B500AF0020FFF7C5FFE1
:1033380037F0DAFC40F64C13C2F2000301221A708F
:1033480000F0C8F938F071F843F2CD50C0F600002B
:1033580038F005FB4FF48043C5F600034FF40042F4
:103368001A61022038F00AFBFEF7FBFA00F0EBF9CD
:1033780035F0BBFD0121012035F008FE00BF80BDFE
:1033880080B500AF35F067FE00BF80BD90B585B051
:1033980000AF0023FB71FEF77EFB0346FB81FB8930
:1033A80040F6B832934202D9FE23FB7117E0FB893D
:1033B800B3F5E16F02D20023FB7110E0FB89A3F59E
:1033C800E1631A461346DB019B1A5B001A4648F272
:1033D800B513C1F64E33A3FB0223DB09FB7140F69C
:1033E8004E13C2F200031A88531C99B240F64E13CA
:1033F800C2F2000319801446FEF74DFB03461A4635
:1034080040F65013C2F2000323F8142040F64E137E
:10341800C2F200031B8803F00F039AB240F64E1362
:10342800C2F200031A800023FB810023BB600CE07A
:1034380040F65013C2F20003BA6833F81220FB8931
:103448001344FB81BB680133BB60BB680F2BEFDD06
:10345800FB89DB099BB2FB71FB7918461437BD4623
:1034680090BD80B588B000AF0023FB833B1D184694
:1034780000F03EF9BB681846FDF784FF0346FB835E
:10348800B7F91E3018462037BD4680BD90B587B0C5
:1034980000AF786000237B61FFF722FF78617B69CA
:1034A800B3F1FF3F38D103F014FC044603F027FCC6
:1034B800034623443B6103F017FCF8603B691A0E8E
:1034C8007B680733D2B21A703B691A0C7B680633E3
:1034D800D2B21A703B691A0A7B680533D2B21A70E5
:1034E8007B6804333A69D2B21A70FB681A0E7B689B
:1034F8000333D2B21A70FB681A0C7B680233D2B25B
:103508001A70FB681A0A7B680133D2B21A70FB681A
:10351800DAB27B681A7031E07B6807337A69D2B215
:103528001A707B691A0A7B680633D2B21A707B69F3
:103538001A0C7B680533D2B21A707B691A0E7B6845
:103548000433D2B21A70FFF7D6FE78617B68033372
:103558007A69D2B21A70FFF7DAFE78617B680233B3
:103568007A69D2B21A707B691A0A7B680133D2B2BF
:103578001A707B691B0CDAB27B681A7000BF1C37A3
:10358800BD4690BD90B583B000AF7860FFF7A8FE48
:1035980002467B681A607B681B68B3F1FF3F0DD158
:1035A80003F097FB044603F09FFB03465C4003F0DF
:1035B800A6FB034684EA03027B681A6000BF0C3747
:1035C800BD4690BD80B586B002AF7860396007F11E
:1035D8000803184635F08AFEBB68B7F90C2000923C
:1035E8004DF25002C0F603021021786800F01BF873
:1035F8007868FCF705FE03469AB23B681A8000BF5C
:103608001037BD4680BD80B500AF0121022035F0DE
:1036180084FC00BF80BD80B500AF0021022035F0DA
:103628007CFC00BF80BD0CB480B584B000AF78606E
:10363800396007F11C03FB603968FB68BA69786870
:1036480036F044FE00BF1037BD46BDE8804002B0EA
:10365800704780B483B000AF7860002318460C37F9
:10366800BD4680BC704780B582B000AF00237B6048
:1036780040F64C13C2F200031B78002B02D000F076
:1036880064FB78607B6818460837BD4680BD80B506
:1036980082B000AF78607B68184600F0DDFB00BFA1
:1036A8000837BD4680BD80B483B000AF78604FF462
:1036B8000063C5F60003D3F890104FF40063C5F615
:1036C80000037A680A43C3F8902000BF0C37BD4650
:1036D80080BC704780B500AF4FF48040FFF7E3FF30
:1036E80003F018FB03F022FB03F02CFB00BF80BDA6
:1036F80080B487B000AF78600023C4F248237B61B0
:103708000023C4F290133B610023C4F27A43FB60A8
:103718007B687A699A607B683A695A607B68FA685C
:103728001A607A6840F60D13C0F23E03D3607A68D7
:1037380040F2AB33C0F205031361002318461C376F
:10374800BD4680BC704780B483B000AF00237B6067
:10375800002318460C37BD4680BC704780B400AFC4
:1037680000BFBD4680BC704780B400AF0123184637
:10377800BD4680BC704780B582B000AF78603960C4
:1037880038F028FE034616221A604FF0FF33184619
:103798000837BD4680BD80B582B000AF78604FF075
:1037A800FF317868FFF7E7FF00BFFDE780B586B017
:1037B80000AFF860B9607A6000237B610AE0AFF37C
:1037C80000800146BB685A1CBA60CAB21A707B698D
:1037D80001337B617A697B689A42F0DB7B68184623
:1037E8001837BD4680BD80B586B000AFF860B960B7
:1037F8007A6000237B6109E0BB685A1CBA601B78B9
:103808001846AFF300807B6901337B617A697B6876
:103818009A42F1DB7B6818461837BD4680BD80B4F4
:1038280083B000AF78604FF0FF3318460C37BD46C1
:1038380080BC704780B483B000AF786039603B6863
:103848004FF400525A60002318460C37BD4680BC1E
:10385800704780B483B000AF7860012318460C37F6
:10386800BD4680BC704780B485B000AFF860B960D1
:103878007A60002318461437BD4680BC70470EB4E2
:1038880080B482B000AF78604FF0FF331846083735
:10389800BD4680BC03B0704780B582B000AF786089
:1038A80038F098FD03460A221A604FF0FF33184695
:1038B8000837BD4680BD80B582B000AF786038F06B
:1038C80089FD034602221A604FF0FF331846083775
:1038D800BD4680BD80B483B000AF78604FF0FF3341
:1038E80018460C37BD4680BC704780B483B000AF23
:1038F800786039603B684FF400525A6000231846DC
:103908000C37BD4680BC704780B582B000AF786088
:10391800396038F05FFD03461F221A604FF0FF330D
:1039280018460837BD4680BD80B500AF38F052FD57
:1039380003460B221A604FF0FF33184680BD80B54E
:1039480084B000AFF860B9607A6038F043FD034690
:103958000C221A604FF0FF3318461037BD4680BD61
:1039680080B586B000AF786040F20002C2F2010272
:1039780040F20043C0F20003D31A7B617B693B61CC
:1039880040F67413C2F200031B68002B08D140F6FE
:103998007413C2F2000342F65002C2F200021A6027
:1039A80040F67413C2F200031A687B6813443A693C
:1039B8009A4207D238F00EFD03460C221A604FF0E7
:1039C800FF3312E040F67413C2F200031B68FB6079
:1039D80040F67413C2F200031A687B681A4440F672
:1039E8007413C2F200031A60FB6818461837BD4604
:1039F80080BD80B400AF00BFBD4680BC70470000EA
:103A080080B487B000AF4FF0B0431B6803F00803E1
:103A1800002B08D14FF0B043D3F894301B0A03F0C1
:103A28000F037B6106E04FF0B0431B681B0903F0EE
:103A38000F037B614DF63423C0F603037A6953F80C
:103A480022307B614FF0B0439B6803F00C030C2BD2
:103A580000F2828001A252F823F000BF993A0008D0
:103A6800613B0008613B0008613B0008A73A000879
:103A7800613B0008613B0008613B0008BB3A000855
:103A8800613B0008613B0008613B0008CF3A000831
:103A980040F21003C2F200037A691A6063E040F250
:103AA8001002C2F200024FF41053C0F2F403136084
:103AB80059E040F21002C2F200024FF49043C0F203
:103AC800E81313604FE04FF0B043DB6803F00303E3
:103AD800FB604FF0B043DB681B0903F007030133B9
:103AE800BB60FB68022B03D0FB68032B09D011E0F5
:103AF8004FF41053C0F2F403BA68B3FBF2F33B611E
:103B08000EE04FF49043C0F2E813BA68B3FBF2F347
:103B18003B6105E07A69BB68B2FBF3F33B6100BF28
:103B28004FF0B043DB681B0A03F07F023B6902FBDE
:103B380003F33B614FF0B043DB685B0F03F007030F
:103B480001337B603A697B68B2FBF3F240F2100301
:103B5800C2F200031A6006E040F21003C2F200034A
:103B68007A691A6000BF4FF0B0439B681B0903F0E5
:103B78000F024DF6D413C0F6030353F822303B600E
:103B880040F21003C2F200031A683B68B2FBF3F27A
:103B980040F21003C2F200031A6000BF1C37BD4692
:103BA80080BC704780B483B000AF78607B689B6846
:103BB80018460C37BD4680BC704780B582B000AF50
:103BC8000023FB7140F67813C2F200031B7883F0E0
:103BD8000103DBB2002B2AD040F6A403C2F2000393
:103BE8004FF0FF321A63FFF74CF800F05FF84FF41C
:103BF800807140F6A400C2F2000013F0E4FB40F626
:103C0800A403C2F200034FF0FF321A6340F6A40087
:103C1800C2F2000014F0F5FD002000F0DCF900F01D
:103C280064F840F67813C2F2000301221A70FB7997
:103C380018460837BD4680BD80B58EB000AF7860A5
:103C4800002387F8373007F108032C220021184693
:103C580038F045FB00F02AF840F67C13C2F2000366
:103C68001B687A6813447B6000237B627B68DB43B4
:103C7800FB600023FB614FF000533B624FF48073FD
:103C88003B6307F108030122194640F6A400C2F27B
:103C9800000013F043FA0346002B01D0FEF771FE33
:103CA80097F8373018463837BD4680BD80B582B0A2
:103CB80000AF0023FB714FF42053C4F2000301222C
:103CC800DA654FF4807140F6A400C2F2000013F0E8
:103CD8007AFB40F6A403C2F200034FF0FF321A63E6
:103CE800FB7918460837BD4680BD80B500AF00F0A7
:103CF80092F9024640F67C13C2F200031A6040F6BD
:103D08007C13C2F200031B68184680BD80B400AF64
:103D180040F67C13C2F200031B681846BD4680BCFF
:103D2800704780B582B000AF00237B6000F073F964
:103D3800024640F67C13C2F200031B68D31A7B606C
:103D48007B6818460837BD4680BD80B582B000AF95
:103D580000237B6040F67813C2F200031B78002B27
:103D680002D000F058F978607B6818460837BD46DD
:103D780080BD80B483B000AF00237B6003237B60E9
:103D88007B6818460C37BD4680BC7047B0B584B018
:103D980000AF78600021F960796800200A46034680
:103DA800950D94024FF47A724FF00003204629468D
:103DB800FDF72EFB02460B461346FB60FB681846D0
:103DC8001037BD46B0BD2DE9B00F85B000AF7860A3
:103DD8000021F960796800200C46054620462946EE
:103DE8004FF0000A4FF0000B4FEA411B4BEAD06B33
:103DF8004FEA401A50465946021B61EB05034FF043
:103E080000004FF00001990041EA927190000246CB
:103E18000B4612EB040843EB05094FF000024FF084
:103E280000034FEAC90343EA58734FEAC8029046B1
:103E38009946404649464FF000024FF00003820A77
:103E480042EA81528B0A1346FB60FB681846143716
:103E5800BD46BDE8B00F704780B584B000AF78604C
:103E68007868FFF793FFF86000F0D5F8B86000E0D5
:103E780000BF00F0D0F80246BB68D31AFA689A422D
:103E8800F6D800BF00BF1037BD4680BD80B582B0F0
:103E980000AF786037F043F900BF0837BD4680BDF2
:103EA80080B584B000AF786000F0A5F8F860FB68D2
:103EB8000133184600F08FF800BF1037BD4680BDAB
:103EC8002DE9B04F8CB000AF78610023FB6200F0A1
:103ED800A2F8B86200F08FF878627B6A0022BB60B3
:103EE800FA604FF000024FF00003B9680B0000229F
:103EF800B96A00200C46054612EB040843EB050995
:103F0800C7E90689D7E906014FF000024FF0000320
:103F1800820A42EA81528B0A1346FB62BB6900227D
:103F28003B607A603B68C3F3090A4FF0000BC7E9AE
:103F380006ABBB691846FFF746FF03469AB27B6992
:103F48001A80FB6A18463037BD46BDE8B08F80B589
:103F580082B000AF78607A68002140F6A400C2F20F
:103F6800000015F06BF900BF0837BD4680BD80B56D
:103F780082B000AF78607A68012140F6A400C2F2EE
:103F8800000015F05BF900BF0837BD4680BD80B55D
:103F980082B000AF00237B60002140F6A400C2F28B
:103FA800000015F063F978607B6818460837BD464D
:103FB80080BD80B582B000AF00237B60012140F650
:103FC800A400C2F2000015F051F978607B68184629
:103FD8000837BD4680BD80B582B000AF78607A688A
:103FE800022140F6A400C2F2000015F027F900BF34
:103FF8000837BD4680BD80B582B000AF022140F6CB
:10400800A400C2F2000015F031F978607B68184608
:104018000837BD4680BD80B582B000AF4FF4205050
:10402800C4F20000FFF7BEFD786006E04FF42050B0
:10403800C4F20000FFF7B6FD78604FF42050C4F2D8
:104048000000FFF7AFFD02467B689342EED17B6824
:10405800DB4318460837BD4680BD80B485B000AF45
:1040680078604FF0B043DA6C4FF0B0417B6813438F
:10407800CB644FF0B043DA6C7B681340FB60FB689D
:1040880000BF1437BD4680BC704780B485B000AF10
:1040980078604FF0B0439A6D4FF0B0417B6813439E
:1040A8008B654FF0B0439A6D7B681340FB60FB68EB
:1040B80000BF1437BD4680BC704780B483B000AFE2
:1040C80078604FF0B0439A6D7B68DB434FF0B041A6
:1040D80013408B6500BF0C37BD4680BC704780B469
:1040E80085B000AF78604FF0B0431A6E4FF0B04122
:1040F8007B6813430B664FF0B0431A6E7B6813401E
:10410800FB60FB6800BF1437BD4680BC704780B4B5
:1041180083B000AF78604FF0B0431A6E7B68DB4322
:104128004FF0B04113400B6600BF0C37BD4680BC52
:10413800704780B483B000AF78600023C4F20103F5
:1041480059680023C4F201037A680A435A6000BF21
:104158000C37BD4680BC704780B500AF40F6801272
:10416800C2F200024FF46053C4F20103136040F638
:104178008013C2F200034FF4E1325A6040F6801314
:10418800C2F2000300229A6040F68013C2F20003D4
:104198000022DA6040F68013C2F2000300221A619E
:1041A80040F68013C2F200030C225A6140F68013D5
:1041B800C2F2000300229A6140F68013C2F20003A3
:1041C8000022DA6140F68013C2F2000300221A626C
:1041D80040F68013C2F2000300225A6240F68013B0
:1041E800C2F2000340229A6240F68013C2F2000332
:1041F8004FF480125A6440F68013C2F20003002282
:104208009A6440F68010C2F2000019F084F903465F
:10421800002B01D0FEF7B5FB002140F68010C2F25A
:1042280000001DF020FC0346002B01D0FEF7A9FB7F
:10423800002140F68010C2F200001DF052FC034637
:10424800002B01D0FEF79DFB40F68010C2F2000063
:104258001DF096FB0346002B01D0FEF792FB00BF32
:1042680080BD80B500AF40F61422C2F200024FF4C0
:104278008843C4F20003136040F61423C2F200031B
:104288004FF416525A6040F61423C2F2000300227B
:104298009A6040F61423C2F200030022DA6040F666
:1042A8001423C2F2000300221A6140F61423C2F25A
:1042B80000030C225A6140F61423C2F200030022C4
:1042C8009A6140F61423C2F200034FF40042DA6107
:1042D80040F61423C2F2000300221A6240F61423A7
:1042E800C2F2000300225A6240F61423C2F200030D
:1042F80000229A6240F61420C2F2000019F00BF96D
:104308000346002B01D0FEF73CFB002140F61420A9
:10431800C2F200001DF0A7FB0346002B01D0FEF7F8
:1043280030FB002140F61420C2F200001DF0D9FB3A
:104338000346002B01D0FEF724FB40F61420C2F2FE
:1043480000001DF058FB0346002B01D0FEF719FBB7
:1043580000BF80BD80B59AB000AF786007F1540304
:1043680000221A605A609A60DA601A6107F1440301
:1043780000221A605A609A60DA6007F10C0338224A
:104388000021184637F0ABFF7B681A684FF460537A
:10439800C4F201039A4240F0F6800123FB604FF417
:1043A80040333B6107F10C03184611F062F90346EC
:1043B800002B01D0FEF7E5FA4FF48040FFF78FFE9F
:1043C8000220FFF74AFEC0237B650223BB65012359
:1043D800FB6501233B6607237B6607F154031946F7
:1043E8004FF48060C4F6000007F085F94FF4003000
:1043F800FFF79FFE4FF48030FFF79BFE40F6A822A0
:10440800C2F200020823C4F20203136040F6A82394
:10441800C2F2000312225A6040F6A823C2F2000337
:1044280010229A6040F6A823C2F200030022DA6044
:1044380040F6A823C2F2000380221A6140F6A8239E
:10444800C2F2000300225A6140F6A823C2F2000318
:1044580000229A6140F6A823C2F200030022DA6122
:1044680040F6A823C2F2000300221A6240F6A820F0
:10447800C2F2000005F009F80346002B01D0FEF750
:1044880080FA7A6840F6A823C2F20003D36740F6A0
:10449800A823C2F200037A689A6240F60832C2F290
:1044A80000021C23C4F20203136040F60833C2F270
:1044B800000311225A6040F60833C2F200030022BA
:1044C8009A6040F60833C2F200030022DA6040F630
:1044D8000833C2F2000380221A6140F60833C2F2A0
:1044E800000300225A6140F60833C2F2000300229A
:1044F8009A6140F60833C2F200030022DA6140F6FE
:104508000833C2F2000300221A6240F60830C2F2F1
:10451800000004F0BAFF0346002B01D0FEF731FA81
:1045280000237B640023BB64002387F84C300123FD
:1045380087F84D3001233B6507F14403194640F6DF
:104548000830C2F2000005F076FD0346002B01D0CA
:10455800FEF717FA7A6840F60833C2F20003C2F889
:10456800803040F60833C2F200037A689A6200226B
:104578000221242004F045FE242004F05CFE0C20D7
:1045880004F059FE36E07B681A684FF48843C4F299
:1045980000039A422ED10223FB604FF440237B6133
:1045A80007F10C03184611F064F80346002B01D0FC
:1045B800FEF7E7F94FF40030FFF767FD0120FFF73A
:1045C8004CFD0C237B650223BB650123FB6501239E
:1045D8003B6607237B6607F1540319464FF090406A
:1045E80007F089F800220021252004F00AFE252082
:1045F80004F021FE00BF6837BD4680BD80B582B09B
:1046080000AF78607B681A684FF46053C4F2010306
:104618009A4219D14FF48040FFF779FDC0214FF439
:104628008060C4F6000007F0DFF97B68DB6F18468E
:1046380004F0DBFF7B68D3F88030184604F0D5FF20
:10464800242004F006FE13E07B681A684FF48843C0
:10465800C4F200039A420BD14FF40030FFF72DFD4E
:104668000C214FF0904007F0BFF9252004F0F1FD30
:1046780000BF0837BD4680BD80B483B000AF786006
:104688004FF0B0431A6C4FF0B0417B6813430B6492
:1046980000BF0C37BD4680BC704780B483B000AF04
:1046A80078604FF0B0431A6C7B68DB434FF0B04141
:1046B80013400B6400BF0C37BD4680BC704780B404
:1046C80083B000AF78604FF40063C5F60003D3F8F9
:1046D80080104FF40063C5F600037A680A43C3F8F4
:1046E800802000BF0C37BD4680BC704780B582B0C3
:1046F80000AF786040F66C33C2F200037A681A6043
:10470800FDF744FAFFF728FD4FF08060FFF7D7FF69
:10471800002318460837BD4680BD80B500AF4FF46A
:104728008040FFF7A9FF4FF48040FFF7B6FF40F63F
:104738008010C2F20000FFF761FF0F2004F089FD2E
:104748000023184680BD80B582B000AF78600B4664
:104758007B807A884FF47A73796840F68010C2F2C9
:10476800000019F0ADF800BF0837BD4680BD80B520
:1047780082B000AF78600B467B807B881A467968E8
:1047880040F68010C2F2000019F0C8FA002318465B
:104798000837BD4680BD80B584B000AF786040F66C
:1047A8007033C2F200037A681A604FF40013BB60DA
:1047B80007F1080393E8060040F68010C2F20000F3
:1047C8001DF01FF800BF40F68013C2F200031B68FB
:1047D800DB6903F48033B3F5803FF4D000BF40F6C3
:1047E8008013C2F200031B68DB6903F48003B3F58E
:1047F800800FF4D140F68013C2F200031B689A6858
:1048080040F68013C2F200031B6842F480029A60EB
:1048180040F68010C2F200001DF04EF8012240F66A
:104828006831C2F2000140F68010C2F2000019F0AF
:1048380029FA002318461037BD4680BD80B500AF61
:1048480040F68010C2F2000018F065FE0346002B07
:1048580001D0FEF796F840F6A820C2F2000004F056
:1048680014FE0346002B01D0FEF78BF800BF80BD75
:1048780080B582B000AF78607B681A684FF46053E7
:10488800C4F201039A4206D140F66C33C2F2000327
:104898001B680020984700BF0837BD4680BD80B51B
:1048A80082B000AF78607B681A684FF46053C4F236
:1048B80001039A421FD140F67033C2F200031B680D
:1048C800002B10D07B68D3F89030002B0BD140F62A
:1048D8007033C2F200031B680022012140F66830E1
:1048E800C2F200009847012240F66831C2F2000186
:1048F800786819F0C7F97B681A684FF48843C4F2DE
:1049080000039A4205D140F21403C2F200030122C7
:104918001A7000BF0837BD4680BD00000D488546A7
:10492800FFF767F80C480D490D4A002302E0D458F8
:10493800C4500433C4188C42F9D30A4A0A4C0023E1
:1049480001E013600432A242FBD337F049FDFDF7C2
:1049580076FEFEE70000012000000020D4060020BB
:10496800FCE50308D80600204C280020FEE780B5A7
:1049780086B000AF3B1D00221A605A609A60DA6068
:104988001A6110237B600123BB600023FB600323B3
:104998003B613B1D19464FF0904006F0ACFE2023CA
:1049A8007B603B1D19464FF0904006F0A4FE0022A4
:1049B80020214FF0904007F017F9002210214FF006
:1049C800904007F011F9002318461837BD4680BDFE
:1049D80080B500AF002210214FF0904007F004F995
:1049E800002220214FF0904007F0FEF810214FF0F0
:1049F800904006F0F9FF20214FF0904006F0F4FFB8
:104A08000023184680BD000080B582B000AF034681
:104A1800FB71FB79032B3FD801A252F823F000BFAA
:104A2800394A0008534A00086D4A0008874A0008B6
:104A3800002210214FF0904007F0D6F800222021E4
:104A48004FF0904007F0D0F827E0012210214FF0F6
:104A5800904007F0C9F8002220214FF0904007F05D
:104A6800C3F81AE0012210214FF0904007F0BCF87B
:104A7800012220214FF0904007F0B6F80DE0002207
:104A880010214FF0904007F0AFF8012220214FF09D
:104A9800904007F0A9F800E000BF00231846083747
:104AA800BD4680BD80B400AF02231846BD4680BC19
:104AB800704780B400AF01231846BD4680BC7047DC
:104AC80080B400AF01231846BD4680BC704780B44F
:104AD80085B000AF0346FB71FB79002B02D10F2391
:104AE800FB6001E01623FB60FB6818461437BD46DF
:104AF80080BC704780B582B000AF0023FB80F98886
:104B08003B462122184601F025FB0346FB80FA8824
:104B18003B461946692001F07FFC0346BB80B7F984
:104B28000430002B02D0B7F9043004E04CF25030C6
:104B380001F02CFD002318460837BD4680BD80B51E
:104B480082B000AF0023FB80F9883B463722184625
:104B580001F000FB0346FB80FA883B4619466920B2
:104B680001F05AFC0346BB80B7F90430002B02D091
:104B7800B7F9043004E04CF2503001F007FD00238F
:104B880018460837BD4680BD80B582B000AF002307
:104B9800FB80F9883B464FF48272184601F0DAFA36
:104BA8000346FB80FA883B461946692001F034FC2D
:104BB8000346BB80B7F90430002B02D0B7F90430A4
:104BC80006E04FF45460C0F2030001F0DFFC00235C
:104BD80018460837BD4680BD80B584B000AF786000
:104BE8000023FB81F98907F1080340F202221846E5
:104BF80001F0B0FA0346FB81FA8907F10803194668
:104C0800692001F009FC0346BB81B7F90C30002B81
:104C180002D0B7F90C301CE044F6206001F0B6FC75
:104C280007F1080302221946692001F008FC03462F
:104C3800BB81B7F90C30002B02D0B7F90C3008E073
:104C48007B7A002B14BF01230023DAB27B681A7029
:104C5800002318461037BD4680BD80B58CB000AF24
:104C6800F860B9607A603B600023FB85F98D07F135
:104C780014034FF47172184601F06CFA0346FB8571
:104C8800FA8D07F114031946692001F0C5FB0346A4
:104C9800BB85B7F92C30002B02D0B7F92C3063E074
:104CA80044F6206001F072FC07F114031022194643
:104CB800692001F0C4FB0346BB85B7F92C30002BF3
:104CC80002D0B7F92C304FE007F11403184600F072
:104CD80064FF03461A46FB681A8007F1140302337F
:104CE800184600F05AFF03461A46BB681A8007F1B7
:104CF80014030433184600F050FF03461A467B6835
:104D08001A8007F114030633184600F046FF0346DD
:104D18001A463B681A8007F114030833184600F056
:104D28006AFF03461A46BB6B1A8007F114030A335D
:104D3800184600F060FF03461A46FB6B1A8007F11D
:104D480014030C33184600F056FF03469AB23B6C26
:104D58001A8007F114030E33184600F04CFF03467F
:104D68009AB27B6C1A80002318463037BD4680BD46
:104D780080B588B000AFF860B9607A603B60002306
:104D8800FB83F98B07F1100340F2D232184601F089
:104D9800E1F90346FB83FA8B07F1100319466920F2
:104DA80001F03AFB0346BB83B7F91C30002B02D055
:104DB800B7F91C303BE044F6206001F0E7FB07F14F
:104DC800100308221946692001F039FB0346BB830A
:104DD800B7F91C30002B02D0B7F91C3027E007F1D7
:104DE8001003184600F007FF03461A46FB681A80AE
:104DF80007F110030233184600F0FDFE03461A4679
:104E0800BB681A8007F110030433184600F0C5FE8A
:104E180003461A467B681A8007F1100306331846C2
:104E280000F0BBFE03461A463B681A80002318466A
:104E38002037BD4680BD80B58CB004AFF860B9603E
:104E48007A603B6007F11603039307F11803029396
:104E580007F11A03019307F11C0300933B687A6872
:104E6800B968F868FFF7F9FE0346FB83B7F91E3007
:104E780018462037BD4680BD80B58EB000AFF860BB
:104E8800B9607A603B600023FB86F98E07F1140352
:104E980040F21342184601F05DF90346FB86FA8E8C
:104EA80007F114031946692001F0B6FA0346BB86D8
:104EB800B7F93430002B02D0B7F9343077E044F634
:104EC800206001F063FB07F11403142219466920DE
:104ED80001F0B5FA0346BB86B7F93430002B02D08F
:104EE800B7F9343063E007F11403184600F055FEB3
:104EF80003461A46FB681A8007F114030233184662
:104F080000F04BFE03461A46BB681A8007F11403EB
:104F18000433184600F041FE03461A467B681A809F
:104F280007F114030633184600F037FE03461A4605
:104F38003B681A8007F114030833184600F02DFE69
:104F480003461A463B6C1A8007F114030A331846C5
:104F580000F023FE03461A467B6C1A8007F11403FF
:104F68000C33184600F019FE03461A46BB6C1A802B
:104F780007F114030E33184600F00FFE03461A46D5
:104F8800FB6C1A8007F114031033184600F005FE75
:104F980003461A463B6D1A8007F11403123318466C
:104FA80000F0FBFD03461A467B6D1A800023184665
:104FB8003837BD4680BD80B582B000AF0023FB8086
:104FC800F9883B4645F20762184601F0C3F80346E4
:104FD800FB80FA883B461946692001F01DFA034612
:104FE800BB80B7F90430002B02D0B7F9043004E0D5
:104FF80044F6206001F0CAFA002318460837BD4677
:1050080080BD80B586B000AF0346FB800B46BB80F1
:1050180013467B800023FB82F98A07F1080346F2D6
:10502800B202184601F096F80346FB82B7F906204B
:10503800F98A07F10803184601F041F90346FB8293
:10504800B7F90420F98A07F10803184601F037F97F
:105058000346FB827A88F98A07F10803184601F0AB
:10506800FEF80346FB82FA8A07F10803194669200D
:1050780001F0D2F90346BB82B7F91430002B02D0F5
:10508800B7F9143004E044F6206001F07FFA0023F9
:1050980018461837BD4680BD80B588B000AFF860A7
:1050A800B9607A600023FB83F98B07F1100346F29D
:1050B800B202184601F04EF80346FB83FA8B07F15B
:1050C80010031946692001F0A7F90346BB83B7F915
:1050D8001C30002B02D0B7F91C3031E044F62060B8
:1050E80001F054FA07F1100306221946692001F06D
:1050F800A6F90346BB83B7F91C30002B02D0B7F9D9
:105108001C301DE007F11003184600F074FD03463B
:105118001A46FB681A8007F110030233184600F09C
:105128006AFD03461A46BB681A8007F11003043368
:10513800184600F032FD03461A467B681A800023A1
:1051480018462037BD4680BD80B586B000AF0346FF
:10515800FB800023FB82F98A07F10C0346F2C602A2
:10516800184600F0F7FF0346FB82FA88F98A07F130
:105178000C03184601F073F80346FB82FA8A07F11C
:105188000C031946692001F047F90346BB82B7F9B9
:105198001430002B02D0B7F9143004E044F6206034
:1051A80001F0F4F9002318461837BD4680BD80B5D4
:1051B80084B000AF78600023FB81F98907F1080308
:1051C80046F2C602184600F0C5FF0346FB81FA897D
:1051D80007F108031946692001F01EF90346BB814F
:1051E800B7F90C30002B02D0B7F90C301DE044F6AB
:1051F800206001F0CBF907F1080302221946692063
:1052080001F01DF90346BB81B7F90C30002B02D021
:10521800B7F90C3009E007F10803184600F0BDFCA7
:1052280003461A467B681A80002318461037BD4685
:1052380080BD90B589B000AF0446084611461A46AD
:105248002346FB800346BB800B467B8013463B808E
:105258000023FB83F98B07F1080346F2D0021846B6
:1052680000F078FF0346FB83B7F90620F98B07F1B6
:105278000803184601F023F80346FB83B7F9042016
:10528800F98B07F10803184601F019F80346FB8368
:10529800B7F90220F98B07F10803184601F00FF857
:1052A8000346FB83B7F90020F98B07F1080318467A
:1052B80001F005F80346FB83B7F93020F98B07F1B5
:1052C8000803184600F0FBFF0346FB83B7F93420B8
:1052D800F98B07F10803184600F0F1FF0346FB833A
:1052E800FA8B07F108031946692001F095F803467F
:1052F800BB83B7F91C30002B02D0B7F91C3004E08F
:1053080044F6206001F042F9002318462437BD46D0
:1053180090BD80B58AB000AFF860B9607A603B6034
:105328000023FB84F98C07F1100346F2D0021846DB
:1053380000F010FF0346FB84FA8C07F110031946AE
:10534800692001F069F80346BB84B7F92430002BC3
:1053580002D0B7F924304FE044F6206001F016F986
:1053680007F110030C221946692001F068F803467A
:10537800BB84B7F92430002B02D0B7F924303BE0C6
:1053880007F11003184600F036FC03461A46FB687E
:105398001A8007F110030233184600F02CFC03466C
:1053A8001A46BB681A8007F110030433184600F048
:1053B80022FC03461A467B681A8007F1100306335D
:1053C800184600F018FC03461A463B681A8007F195
:1053D80010030833184600F00EFC03461A463B6BD0
:1053E8001A8007F110030A33184600F004FC03463C
:1053F8001A467B6B1A80002318462837BD4680BDA5
:1054080090B589B000AF0446084611461A462346AF
:10541800FB800346BB800B467B8013463B80002302
:10542800FB83F98B07F1080346F2E102184600F006
:1054380091FE0346FB83B7F90620F98B07F10803B1
:10544800184600F03CFF0346FB83B7F90420F98BAC
:1054580007F10803184600F032FF0346FB83B7F94B
:105468000220F98B07F10803184600F028FF0346CD
:10547800FB83B7F90020F98B07F10803184600F001
:105488001EFF0346FB83B7F93020F98B07F10803A9
:10549800184600F014FF0346FB83B7F93420F98B54
:1054A80007F10803184600F00AFF0346FB83FA8B4E
:1054B80007F108031946692000F0AEFF0346BB83D5
:1054C800B7F91C30002B02D0B7F91C3004E044F6C1
:1054D800206001F05BF8002318462437BD4690BDD4
:1054E80080B58AB000AFF860B9607A603B6000238D
:1054F800FB84F98C07F1100346F2E102184600F02C
:1055080029FE0346FB84FA8C07F11003194669202B
:1055180000F082FF0346BB84B7F92430002B02D089
:10552800B7F924304FE044F6206001F02FF807F176
:1055380010030C221946692000F081FF0346BB8442
:10554800B7F92430002B02D0B7F924303BE007F13B
:105558001003184600F04FFB03461A46FB681A80F2
:1055680007F110030233184600F045FB03461A46BC
:10557800BB681A8007F110030433184600F03BFBA0
:1055880003461A467B681A8007F11003063318464B
:1055980000F031FB03461A463B681A8007F11003F6
:1055A8000833184600F027FB03461A463B6B1A805F
:1055B80007F110030A33184600F01DFB03461A468C
:1055C8007B6B1A80002318462837BD4680BD80B5FE
:1055D80086B000AF0346FB800023FB82F98A07F1FF
:1055E8000C0346F2F702184600F0B4FD0346FB82AE
:1055F800FA88F98A07F10C03184600F030FE0346D2
:10560800FB82FA8A07F10C031946692000F004FFAF
:105618000346BB82B7F91430002B02D0B7F9143017
:1056280004E044F6206000F0B1FF00231846183764
:10563800BD4680BD80B584B000AF78600023FB8193
:10564800F98907F1080346F2F702184600F082FDCF
:105658000346FB81FA8907F108031946692000F01F
:10566800DBFE0346BB81B7F90C30002B02D0B7F93B
:105678000C301DE044F6206000F088FF07F10803B5
:1056880002221946692000F0DAFE0346BB81B7F909
:105698000C30002B02D0B7F90C3009E007F10803F1
:1056A800184600F07AFA03461A467B681A800023E7
:1056B80018461037BD4680BD80B588B000AF786009
:1056C8000B46FB700023FB83F98B07F10C0346F2B2
:1056D8008112184600F03EFD0346FB83FB789BB21F
:1056E800F98B07F10C007A6800F04FFE0346FB8344
:1056F800FA8B07F10C031946692000F08DFE03466A
:10570800BB83B7F91C30002B02D0B7F91C3004E07A
:1057180044F6206000F03AFF002318462037BD46C3
:1057280080BD80B586B000AF78600B46FB70002363
:10573800FB82F98A07F1080346F28112184600F045
:1057480009FD0346FB82FA8A07F108031946692016
:1057580000F062FE0346BB82B7F91430002B02D07A
:10576800B7F914301CE044F6206000F00FFF07F191
:10577800080308221946692000F061FE0346BB822F
:10578800B7F91430002B02D0B7F9143008E0FB78D1
:105798009AB207F108037968184600F0D0FA002396
:1057A80018461837BD4680BD80B586B000AF786012
:1057B8000023FB82F98A07F10C0348F20402184619
:1057C80000F0C8FC0346FB82F98A07F10C037A68EB
:1057D800184600F0E1FC0346FB82FA8A07F10C0345
:1057E8001946692000F018FE0346BB82B7F9143049
:1057F800002B02D0B7F9143004E044F6206000F022
:10580800C5FE002318461837BD4680BD80B586B052
:1058180000AF78600023FB82F98A07F10C0348F295
:105828000402184600F096FC0346FB82FA8A07F148
:105838000C031946692000F0EFFD0346BB82B7F957
:105848001430002B02D0B7F914301CE044F6206065
:1058580000F09CFE07F10C0304221946692000F0B1
:10586800EEFD0346BB82B7F91430002B02D0B7F91E
:10587800143008E007F10C03184600F0A2F90246BC
:105888007B681A60002318461837BD4680BD80B56E
:1058980090B000AF78600B46FB700023FB87F98F50
:1058A80007F10C034DF21402184600F053FC0346AE
:1058B800FB87FA8F07F10C031946692000F0ACFD4D
:1058C8000346BB87B7F93C30002B02D0B7F93C3010
:1058D8001CE04CF2503000F059FE07F10C03202276
:1058E8001946692000F0ABFD0346BB87B7F93C3089
:1058F800002B02D0B7F93C3008E0FB789AB207F1E8
:105908000C037968184600F01AFA00231846403745
:10591800BD4680BD80B590B000AF78600B46FB7087
:105928000023FB87F98F07F10C034DF23302184669
:1059380000F010FC0346FB87FA8F07F10C031946A9
:10594800692000F069FD0346BB87B7F93C30002B9E
:1059580002D0B7F93C301CE04CF2503000F016FE93
:1059680007F10C0320221946692000F068FD034660
:10597800BB87B7F93C30002B02D0B7F93C3008E0C0
:10598800FB789AB207F10C037968184600F0D7F94A
:10599800002318464037BD4680BD80B588B000AFAB
:1059A800F860B9607A603B600023FB83F98B07F1EC
:1059B80010034FF45142184600F0CCFB0346FB831A
:1059C800FA8B07F110031946692000F025FD0346FC
:1059D800BB83B7F91C30002B02D0B7F91C302EE07E
:1059E80044F6206000F0D2FD07F1100308221946A2
:1059F800692000F024FD0346BB83B7F91C30002B57
:105A080002D0B7F91C301AE03A7CFB681A707A7C2D
:105A1800BB681A70BB7C002B14BF01230023DAB2C9
:105A28007B681A70FA7C3B681A703A7DBB6A1A70F8
:105A38007A7DFB6A1A70BA7D3B6B1A700023184690
:105A48002037BD4680BD80B586B000AF78600023A2
:105A5800FB82F98A07F10C034DF20622184600F082
:105A680079FB0346FB82FA8A07F10C031946692081
:105A780000F0D2FC0346BB82B7F91430002B02D0E9
:105A8800B7F914301CE044F6206000F07FFD07F100
:105A98000C0304221946692000F0D1FC0346BB829E
:105AA800B7F91430002B02D0B7F9143008E007F129
:105AB8000C03184600F085F802467B681A6000233C
:105AC80018461837BD4680BD80B586B000AF7860EF
