:020000040800F2
:100000000000012029370008832500088B250008FF
:10001000932500089B250008A32500080000000088
:10002000000000000000000000000000AB250008F8
:10003000B725000800000000C3250008CF250008F0
:100040007937000879370008DD250008793700087E
:1000500079370008793700087937000879370008C0
:10006000793700087937000879370008F12500084A
:100070000526000879370008793700087937000825
:100080007937000879370008793700087937000890
:100090000000000079370008793700087937000838
:1000A0007937000879370008793700087937000870
:1000B0007937000879370008793700087937000860
:1000C000192600082D26000879370008793700081E
:1000D00041260008552600087937000869260008DF
:1000E00079370008793700087D260008793700083D
:1000F0007937000800000000000000007937000890
:100100007937000879370008912600087937000808
:1001100079370008793700087937000879370008FF
:1001200079370008793700087937000879370008EF
:0801300079370008A52600083C
:1001380010B5054C237833B9044B13B10448AFF319
:1001480000800123237010BD400100200000000042
:10015800E0F1010808B5034B1BB103490348AFF3AD
:10016800008008BD0000000044010020E0F1010803
:10017800034613F8012B002AFBD1181A01387047DF
:1001880081F0004102E000BF83F0004330B54FEA40
:1001980041044FEA430594EA050F08BF90EA020FAD
:1001A8001FBF54EA000C55EA020C7FEA645C7FEA40
:1001B800655C00F0E2804FEA5454D4EB5555B8BF63
:1001C8006D420CDD2C4480EA020281EA030382EAD4
:1001D800000083EA010180EA020281EA0303362D66
:1001E80088BF30BD11F0004F4FEA01314FF4801C39
:1001F8004CEA113102D0404261EB410113F0004F4B
:100208004FEA03334CEA133302D0524263EB430301
:1002180094EA050F00F0A780A4F10104D5F1200E9F
:100228000DDB02FA0EFC22FA05F2801841F10001FA
:1002380003FA0EF2801843FA05F359410EE0A5F1CE
:1002480020050EF1200E012A03FA0EFC28BF4CF0FF
:10025800020C43FA05F3C01851EBE37101F00045B5
:1002680007D54FF0000EDCF1000C7EEB00006EEBC2
:100278000101B1F5801F1BD3B1F5001F0CD349084C
:100288005FEA30004FEA3C0C04F101044FEA4452A3
:1002980012F5800F80F09A80BCF1004F08BF5FEA2A
:1002A800500C50F1000041EB045141EA050130BD0A
:1002B8005FEA4C0C404141EB0101013C28BFB1F51C
:1002C800801FE9D291F0000F04BF01460020B1FA67
:1002D80081F308BF2033A3F10B03B3F120020CDA3A
:1002E8000C3208DD02F1140CC2F10C0201FA0CF018
:1002F80021FA02F10CE002F11402D8BFC2F1200C7D
:1003080001FA02F120FA0CFCDCBF41EA0C01904032
:10031800E41AA2BF01EB0451294330BD6FEA04047B
:100328001F3C1CDA0C340EDC04F11404C4F1200266
:1003380020FA04F001FA02F340EA030021FA04F378
:1003480045EA030130BDC4F10C04C4F1200220FACF
:1003580002F001FA04F340EA0300294630BD21FA0D
:1003680004F0294630BD94F0000F83F4801306BFD3
:1003780081F480110134013D4EE77FEA645C18BFC7
:100388007FEA655C29D094EA050F08BF90EA020F5E
:1003980005D054EA000C04BF1946104630BD91EA56
:1003A800030F1EBF0021002030BD5FEA545C05D159
:1003B8004000494128BF41F0004130BD14F5800498
:1003C8003CBF01F5801130BD01F0004545F0FE410C
:1003D80041F470014FF0000030BD7FEA645C1ABF41
:1003E800194610467FEA655C1CBF0B46024650EA78
:1003F800013406BF52EA033591EA030F41F40021A4
:1004080030BD00BF90F0000F04BF0021704730B529
:100418004FF4806404F132044FF000054FF00001FE
:1004280050E700BF90F0000F04BF0021704730B5BF
:100438004FF4806404F1320410F0004548BF404294
:100448004FF000013EE700BF42004FEAE2014FEAE9
:1004580031014FEA02701FBF12F07F4393F07F4FC4
:1004680081F06051704732F07F4208BF704793F0C7
:100478007F4F04BF41F40021704730B54FF46074DA
:1004880001F0004521F000411CE700BF50EA0102DD
:1004980008BF704730B54FF000050AE050EA010286
:1004A80008BF704730B511F0004502D5404261EBF6
:1004B80041014FF4806404F132045FEA915C3FF437
:1004C800D8AE4FF003025FEADC0C18BF03325FEAD4
:1004D800DC0C18BF033202EBDC02C2F1200300FA85
:1004E80003FC20FA02F001FA03FE40EA0E0021FAAA
:1004F80002F11444BDE600BF70B54FF0FF0C4CF498
:10050800E06C1CEA11541DBF1CEA135594EA0C0F49
:1005180095EA0C0F00F0DEF82C4481EA030621EA84
:100528004C5123EA4C5350EA013518BF52EA0335BF
:1005380041F4801143F4801338D0A0FB02CE4FF071
:100548000005E1FB02E506F00042E0FB03E54FF0A1
:100558000006E1FB03569CF0000F18BF4EF0010E99
:10056800A4F1FF04B6F5007F64F5407404D25FEA95
:100578004E0E6D4146EB060642EAC62141EA555148
:100588004FEAC52040EA5E504FEACE2EB4F1FD0C8A
:1005980088BFBCF5E06F1ED8BEF1004F08BF5FEA08
:1005A800500E50F1000041EB045170BD06F00046BA
:1005B80046EA010140EA020081EA0301B4EB5C0467
:1005C800C2BFD4EB0C0541EA045170BD41F480115F
:1005D8004FF0000E013C00F3AB8014F1360FDEBF84
:1005E800002001F0004170BDC4F10004203C35DA60
:1005F8000C341BDC04F11404C4F1200500FA05F3E3
:1006080020FA04F001FA05F240EA020001F0004283
:1006180021F0004110EBD37021FA04F642EB0601F9
:100628005EEA430E08BF20EAD37070BDC4F10C0423
:10063800C4F1200500FA04F320FA05F001FA04F2E7
:1006480040EA020001F0004110EBD37041F10001D3
:100658005EEA430E08BF20EAD37070BDC4F12005DE
:1006680000FA05F24EEA020E20FA04F301FA05F246
:1006780043EA020321FA04F001F0004121FA04F2EE
:1006880020EA020000EBD3705EEA430E08BF20EABE
:10069800D37070BD94F0000F0FD101F000464000F8
:1006A80041EB010111F4801F08BF013CF7D041EA7A
:1006B800060195F0000F18BF704703F0004652007E
:1006C80043EB030313F4801F08BF013DF7D043EA4F
:1006D8000603704794EA0C0F0CEA135518BF95EA05
:1006E8000C0F0CD050EA410618BF52EA4306D1D18C
:1006F80081EA030101F000414FF0000070BD50EAAB
:10070800410606BF1046194652EA430619D094EA34
:100718000C0F02D150EA013613D195EA0C0F05D11E
:1007280052EA03361CBF104619460AD181EA030172
:1007380001F0004141F0FE4141F470014FF000002A
:1007480070BD41F0FE4141F4780170BD70B54FF0C5
:10075800FF0C4CF4E06C1CEA11541DBF1CEA135545
:1007680094EA0C0F95EA0C0F00F0A7F8A4EB050427
:1007780081EA030E52EA03354FEA013100F088801E
:100788004FEA03334FF0805545EA131343EA1263E7
:100798004FEA022245EA111545EA10654FEA00269C
:1007A8000EF000419D4208BF964244F1FD0404F555
:1007B800407402D25B084FEA3202B61A65EB0305B1
:1007C8005B084FEA32024FF480104FF4002CB6EB6E
:1007D800020E75EB030E22BFB61A754640EA0C00EE
:1007E8005B084FEA3202B6EB020E75EB030E22BF2E
:1007F800B61A754640EA5C005B084FEA3202B6EB6F
:10080800020E75EB030E22BFB61A754640EA9C002D
:100818005B084FEA3202B6EB020E75EB030E22BFFD
:10082800B61A754640EADC0055EA060E18D04FEABB
:10083800051545EA16754FEA06164FEAC30343EA5B
:1008480052734FEAC2025FEA1C1CC0D111F4801F28
:100858000BD141EA00014FF000004FF0004CB6E721
:1008680011F4801F04BF01430020B4F1FD0C88BFC0
:10087800BCF5E06F3FF6AFAEB5EB030C04BFB6EBCB
:10088800020C5FEA500C50F1000041EB045170BDBE
:100898000EF0004E4EEA113114EB5C04C2BFD4EBEB
:1008A8000C0541EA045170BD41F480114FF0000E6F
:1008B800013C90E645EA060E8DE60CEA135594EAEB
:1008C8000C0F08BF95EA0C0F3FF43BAF94EA0C0FEE
:1008D8000AD150EA01347FF434AF95EA0C0F7FF463
:1008E80025AF104619462CE795EA0C0F06D152EAB7
:1008F80003353FF4FDAE1046194622E750EA41069B
:1009080018BF52EA43067FF4C5AE50EA41047FF4AB
:100918000DAF52EA43057FF4EBAE12E74FF0FF3C10
:1009280006E000BF4FF0010C02E000BF4FF0010CE1
:100938004DF804CD4FEA410C7FEA6C5C4FEA430C5A
:1009480018BF7FEA6C5C1BD001B050EA410C0CBFA9
:1009580052EA430C91EA030F02BF90EA020F00200B
:10096800704710F1000F91EA030F58BF994208BF72
:1009780090422CBFD8176FEAE37040F0010070472F
:100988004FEA410C7FEA6C5C02D150EA013C07D186
:100998004FEA430C7FEA6C5CD6D152EA033CD3D0D1
:1009A8005DF8040B704700BF8446104662468C46CB
:1009B8001946634600E000BF01B5FFF7B7FF0028FE
:1009C80048BF10F1000F01BD4DF808EDFFF7F4FF27
:1009D8000CBF012000205DF808FB00BF4DF808EDB2
:1009E800FFF7EAFF34BF012000205DF808FB00BFD5
:1009F8004DF808EDFFF7E0FF94BF012000205DF8F7
:100A080008FB00BF4DF808EDFFF7CEFF94BF0120AB
:100A180000205DF808FB00BF4DF808EDFFF7C4FFA4
:100A280034BF012000205DF808FB00BF4FEA4102F7
:100A380012F5001215D211D56FF47873B3EB625228
:100A480012D94FEAC12343F0004343EA505311F04F
:100A5800004F23FA02F018BF404270474FF00000E1
:100A6800704750EA013005D111F0004008BF6FF01F
:100A7800004070474FF00000704700BF80F0004012
:100A880002E000BF81F0004142001FBF5FEA41035E
:100A980092EA030F7FEA226C7FEA236C6AD04FEA5E
:100AA8001262D2EB1363C1BFD218414048404140A3
:100AB800B8BF5B42192B88BF704710F0004F40F455
:100AC800000020F07F4018BF404211F0004F41F471
:100AD800000121F07F4118BF494292EA030F3FD03D
:100AE800A2F1010241FA03FC10EB0C00C3F1200350
:100AF80001FA03F100F0004302D5494260EB4000DF
:100B0800B0F5000F13D3B0F1807F06D340084FEA49
:100B1800310102F10102FE2A51D2B1F1004F40EB3E
:100B2800C25008BF20F0010040EA030070474900A6
:100B380040EB0000013A28BFB0F5000FEDD2B0FA43
:100B480080FCACF1080CB2EB0C0200FA0CF0AABF66
:100B580000EBC25052421843BCBFD0401843704704
:100B680092F0000F81F4000106BF80F4000001320A
:100B7800013BB5E74FEA41037FEA226C18BF7FEAE1
:100B8800236C21D092EA030F04D092F0000F08BF23
:100B98000846704790EA010F1CBF0020704712F00A
:100BA8007F4F04D1400028BF40F00040704712F149
:100BB80000723CBF00F50000704700F0004343F0AE
:100BC800FE4040F4000070477FEA226216BF0846E4
:100BD8007FEA23630146420206BF5FEA412390EAA7
:100BE800010F40F4800070474FF0000304E000BF9D
:100BF80010F0004348BF40425FEA000C08BF70474E
:100C080043F0964301464FF000001CE050EA010211
:100C180008BF70474FF000030AE000BF50EA010226
:100C280008BF704711F0004302D5404261EB410113
:100C38005FEA010C02BF84460146002043F0B64338
:100C480008BFA3F18053A3F50003BCFA8CF2083A5D
:100C5800A3EBC25310DB01FA02FC634400FA02FC66
:100C6800C2F12002BCF1004F20FA02F243EB02006D
:100C780008BF20F00100704702F1200201FA02FCCF
:100C8800C2F1200250EA4C0021FA02F243EB0200C2
:100C980008BF20EADC7070474FF0FF0C1CEAD05206
:100CA8001EBF1CEAD15392EA0C0F93EA0C0F6FD0C7
:100CB8001A4480EA010C400218BF5FEA41211ED0A5
:100CC8004FF0006343EA501043EA5111A0FB013191
:100CD8000CF00040B1F5000F3EBF490041EAD37166
:100CE8005B0040EA010062F17F02FD2A1DD8B3F1E2
:100CF800004F40EBC25008BF20F00100704790F051
:100D0800000F0CF0004C08BF49024CEA502040EAA2
:100D180051207F3AC2BFD2F1FF0340EAC250704768
:100D280040F400004FF00003013A5DDC12F1190FA6
:100D3800DCBF00F000407047C2F10002410021FA18
:100D480002F1C2F1200200FA02FC5FEA310040F130
:100D5800000053EA4C0308BF20EADC70704792F0A9
:100D6800000F00F0004C02BF400010F4000F013AE1
:100D7800F9D040EA0C0093F0000F01F0004C02BFDC
:100D8800490011F4000F013BF9D041EA0C018FE74B
:100D98000CEAD15392EA0C0F18BF93EA0C0F0AD051
:100DA80030F0004C18BF31F0004CD8D180EA010077
:100DB80000F00040704790F0000F17BF90F0004F10
:100DC800084691F0000F91F0004F14D092EA0C0FF2
:100DD80001D142020FD193EA0C0F03D14B0218BF85
:100DE800084608D180EA010000F0004040F0FE40CB
:100DF80040F40000704740F0FE4040F44000704767
:100E08004FF0FF0C1CEAD0521EBF1CEAD15392EAE5
:100E18000C0F93EA0C0F69D0A2EB030280EA010CD5
:100E280049024FEA402037D04FF0805343EA11116E
:100E380043EA10130CF000408B4238BF5B0042F1CC
:100E48007D024FF4000C8B4224BF5B1A40EA0C0071
:100E5800B3EB510F24BFA3EB510340EA5C00B3EBA3
:100E6800910F24BFA3EB910340EA9C00B3EBD10F91
:100E780024BFA3EBD10340EADC001B0118BF5FEAE3
:100E88001C1CE0D1FD2A3FF650AF8B4240EBC2500C
:100E980008BF20F0010070470CF0004C4CEA5020CD
:100EA8007F32C2BFD2F1FF0340EAC250704740F41C
:100EB80000004FF00003013A37E792F0000F00F00E
:100EC800004C02BF400010F4000F013AF9D040EA8C
:100ED8000C0093F0000F01F0004C02BF490011F420
:100EE800000F013BF9D041EA0C0195E70CEAD15318
:100EF80092EA0C0F08D142027FF47DAF93EA0C0FFF
:100F08007FF470AF084676E793EA0C0F04D14B02E2
:100F18003FF44CAF08466EE730F0004C18BF31F094
:100F2800004CCAD130F000427FF45CAF31F000438E
:100F38007FF43CAF5FE700BF4FEA4002B2F1FE4FDB
:100F48000FD34FF09E03B3EB12620DD94FEA002383
:100F580043F0004310F0004F23FA02F018BF40425C
:100F680070474FF00000704712F1610F01D1420243
:100F780005D110F0004008BF6FF0004070474FF0F7
:100F88000000704753B94AB9002908BF00281CBFA0
:100F98004FF0FF314FF0FF3000F088B9ADF1080C89
:100FA8006DE904CE00F006F8DDF804E0DDE902237F
:100FB80004B070472DE9F047089D8E4604468846E0
:100FC800002B4AD18A42174662D9B2FA82F64EB14C
:100FD800C6F1200301FA06F820FA03F3B74043EA02
:100FE8000808B4404FEA174E1FFA87FCB8FBFEF119
:100FF800230C0EFB118843EA084301FB0CF29A42CA
:1010080009D9FB1801F1FF3080F0EA809A4240F2DA
:10101800E78002393B449A1AA3B2B2FBFEF00EFBFA
:10102800102243EA024300FB0CFC9C4509D9FB183B
:1010380000F1FF3280F0D6809C4540F2D3803B44DB
:10104800023840EA0140A3EB0C0300211DB1F34034
:101058000022C5E90032BDE8F0878B4205D90DB101
:10106800C5E9000100210846F5E7B3FA83F1002934
:1010780046D1734502D3824200F20581841A6EEB91
:10108800030201209046002DE5D0C5E90048E2E7BB
:10109800002A00F09080B2FA82F6002E40F0A48078
:1010A8008A1A030C4FEA174E80B2BCB20121B2FB78
:1010B800FEFC0EFB1C2243EA024304FB0CF29A429C
:1010C80007D9FB180CF1FF3802D29A4200F2E080EF
:1010D800C4469B1AB3FBFEF20EFB123340EA0343ED
:1010E80002FB04F49C4207D9FB1802F1FF3002D23C
:1010F8009C4200F2CA8002461B1B42EA0C40A5E74C
:10110800C1F120068B4022FA06F71F430EFA01F4BC
:1011180020FA06F32EFA06FE4FEA1749234300FA8F
:1011280001F81FFA87FCBEFBF9F01C0C09FB10EE56
:1011380044EA0E4400FB0CFEA64502FA01F209D966
:101148003C1900F1FF3A80F09C80A64540F2998056
:1011580002383C44A4EB0E041FFA83FEB4FBF9F3F7
:1011680009FB13444EEA044403FB0CFCA44508D9CC
:101178003C1903F1FF3E80F08280A4457FD9023BF1
:101188003C4443EA0040A4EB0C04A0FB02EC644599
:101198007346E14662D35FD05DB1B8EB030264EBFE
:1011A800090404FA06F622FA01F31E43CC40C5E905
:1011B800006400214FE7B1FBF2FC010C41EA0E414B
:1011C80080B240EA01423B4638463C46B846BE46F5
:1011D8002026B1FBF7F1A2EB080241EA0C4166E7D1
:1011E800014618E710462CE7C6F120022EFA02F352
:1011F800B740B14020FA02F24FEA174E0A43B3FB58
:10120800FEF8BCB20EFB1833110C41EA034108FB8F
:1012180004F9B04089454FEA104380B23ED97918A5
:1012280008F1FF3C01D289451FD8A1EB0901B1FBA8
:10123800FEF909FB04F80EFB191192B242EA0142C9
:10124800424529D2BA1809F1FF31C4D24245C2D267
:10125800A9F102013A44BEE7F0459DD2BEEB020374
:101268006CEB070C0138E14696E7A7EB09094944FE
:10127800A8F1020CB1FBFEF909FB04F8DBE77346A1
:101288007FE7504666E70846FDE63B44023A33E707
:10129800ACF1020C3B441CE749469CE7A1EB090171
:1012A800C446B1FBFEF909FB04F8C4E7704700BF68
:1012B80080B485B000AF78604FF0B043DA6C4FF07F
:1012C800B0417B681343CB644FF0B043DA6C7B6862
:1012D8001340FB60FB6800BF1437BD4680BC7047F5
:1012E80080B485B000AF78604FF0B0431A6E4FF00D
:1012F800B0417B6813430B664FF0B0431A6E7B68AE
:101308001340FB60FB6800BF1437BD4680BC7047C4
:1013180080B483B000AF78604FF0B0431A6E7B683A
:10132800DB434FF0B04113400B6600BF0C37BD469E
:1013380080BC704780B584B000AF3B1D00221A60A6
:101348005A609A602C4B2D4A1A602B4B4FF0004282
:101358005A60294B00229A60274B0022DA60264BFC
:1013680000221A61244B04225A61234B00221A7668
:10137800214B00225A76204B01229A761E4B0122DD
:10138800DA611D4B002283F820201B4B00225A6291
:10139800194B00229A62184B002283F82C20164B16
:1013A8004FF480521A63144B07225A63124B0722D8
:1013B8009A63114B002283F83C200F4B0022DA6419
:1013C8000D4802F0B7FF0346002B01D000F09CFE49
:1013D8000B4B7B600023BB600023FB603B1D194661
:1013E800054803F0E3FA0346002B01D000F08CFE19
:1013F80000BF1037BD4680BD5C01002000240140BD
:101408000800000C80B588B000AF786007F10C03C5
:1014180000221A605A609A60DA601A617B681B6859
:101428000C4A934212D14FF40070FFF759FF022083
:10143800FFF73EFF1023FB6003233B6100237B6122
:1014480007F10C031946044804F012FE00BF2037C8
:10145800BD4680BD002401400004004880B582B02C
:1014680000AF78607B681B68074A934207D14FF446
:101478000070FFF74DFF1021044804F059FF00BF2A
:101488000837BD4680BD00BF002401400004004865
:1014980080B400AF034B044A1A6000BFBD4680BC4D
:1014A800704700BF5C0100200024014080B500AFF8
:1014B800034800F007F803469BB2184680BD00BFFA
:1014C8000800000C80B586B000AF786000237B610F
:1014D80007F1080300221A605A609A60FFF72AFF92
:1014E8001A4803F046FD0346002B01D000F00CFE1D
:1014F8007B68BB600023FB6000233B6107F10803A6
:101508001946124803F052FA0346002B01D000F0A6
:10151800FBFD0E4803F02EF90346002B01D000F026
:10152800F3FD4FF0FF31094803F09CF9074803F039
:1015380067F9064803F02DFA7861044803F08EF83D
:101548007B6918461837BD4680BD00BF5C01002086
:1015580080B485B000AF78604FF0B0439A6C4FF01C
:10156800B0417B6813438B644FF0B0439A6C7B683F
:101578001340FB60FB6800BF1437BD4680BC704752
:1015880080B500AF0420FFF7E3FF0120FFF7E0FF7D
:10159800002202210B2003F092FE0B2003F0A9FE8B
:1015A800002200210C2003F08AFE0C2003F0A1FE8B
:1015B800002200213D2003F082FE3D2003F099FE29
:1015C80000BF80BD80B586B000AFF860B9607A60B2
:1015D800FF23FB75FB68B3F1006F11D30B4B1B683E
:1015E8009A020B4B134003F10063013BFA689342E4
:1015F80006D37A68B968F86800F05AF80346FB75AC
:1016080097F9173018461837BD4680BDE075FF1F9B
:1016180000FCFF0380B586B000AFF860B9607A605F
:10162800FF23FB75BB68B3F1006F11D30B4B1B682D
:101638009A020B4B134003F10063013BBA689342D3
:1016480006D37A68B968F86800F03AF90346FB757A
:1016580097F9173018461837BD4680BDE075FF1F4B
:1016680000FCFF0380B584B000AF78603960FF23C9
:10167800FB737B68B3F1006F10D30B4B1B689A02A6
:101688000A4B134003F10063013B7A68934205D388
:101698003968786800F032F90346FB7397F90F3020
:1016A80018461037BD4680BDE075FF1F00FCFF03DC
:1016B80080B590B000AFF860B9607A60002387F811
:1016C8003F30FB68BB63BB687B637B683B63FB683D
:1016D800002B0CD0BB68002B09D07B6803F00703F4
:1016E800002B04D1FB6803F00703002B02D06FF036
:1016F8000503DAE000F092F9034687F83F3097F9DE
:101708003F30002B40F0CF8004F0DCFA0346002B7A
:1017180040F0C680BB6B03F17842664B1B689902A8
:10172800654B0B40B2FBF3F101FB03F3D31ADB0A61
:10173800BB61BA6B7B68134403F17843013B5D4A94
:10174800126891025C4A0A40B3FBF2F101FB02F213
:101758009B1ADA0ABB69D31A01337B617B69012BB7
:1017680005D9BB6BC3F30A03C3F500633B63BB69CD
:10177800FB6289E0FB6A03F58033DB023B61396B6E
:10178800F86800F025F90346002B31D04B4B1B6855
:10179800002B03D1FA2387F83F307EE0474B1B68C4
:1017A80039694FF40062184600F08AF8434B1A680A
:1017B800BB6BC3F30A031344796B3A6B92B21846B6
:1017C8001CF09AF93B694FF40061184600F096F84E
:1017D8000346002B03D0FE2387F83F305DE03B69CA
:1017E8007B62364B1B683B624FF40063FB6105E08C
:1017F800BB6B7B627B6B3B623B6BFB610023BB6219
:1018080026E03A6ABB6A1344D3E90023796A0120C7
:1018180004F014FA0346002B13D17B6AD3E90001C4
:101828003A6ABB6A1344D3E90023994208BF90423D
:1018380003D0FC2387F83F300EE07B6A08337B62D5
:1018480003E0FC2387F83F3006E0BB6A0833BB623D
:10185800BA6AFB699A42D4D397F93F30002B1BD15F
:10186800BA6B3B6B1344BB637A6B3B6B13447B6370
:101878007A683B6BD31AB3F5006F28BF4FF4006347
:101888003B63FB6A0133FB62BA697B691344FA6AFA
:101898009A42FFF46FAF00E000BF04F035FA02E0AF
:1018A800FB2387F83F3097F93F3018464037BD464D
:1018B80080BD00BFE075FF1F00FCFF03C0010020D2
:1018C80080B586B000AFF860B9607A600023FB7518
:1018D800FB68002B02D0BB68002B02D16FF0050318
:1018E80008E07B689BB21A46B968F8681CF004F9EE
:1018F80097F9173018461837BD4680BD80B588B0AF
:1019080000AF786039600023FB770123BB770023A1
:101918007B617B68BB617B68002B02D16FF005039C
:101928004EE000F07BF80346FB7797F91F30002B59
:1019380044D104F0C7F90346002B3DD10223BB6014
:10194800BB6903F17842204B1B6899021F4B0B407F
:10195800B2FBF3F101FB03F3D31ADB0AFB60BA69AC
:101968003B68134403F17843013B174A126891021C
:10197800164A0A40B3FBF2F101FB02F29B1ADA0A9B
:10198800FB68D31A01333B6107F1140207F108031E
:101998001146184604F098FA0346BB77BB7F002B24
:1019A80007D0BB7F022B01D1012301E06FF00103B7
:1019B800FB7704F0A9F901E0FB23FB7797F91F30C7
:1019C80018462037BD4680BDE075FF1F00FCFF03A9
:1019D80080B485B000AF786039600023FB600023D5
:1019E800BB6011E07B68D3E90023B3F1FF3F08BF78
:1019F800B2F1FF3F02D00123FB6009E07B680833A6
:101A08007B60BB680833BB60BA683B689A42E9D31D
:101A1800FB6818461437BD4680BC704780B582B055
:101A280000AFFB23FB7104F04DF90346002B10D1E6
:101A38000B4B9B690A4A43F040439361084B4CF2B5
:101A4800FA321A6104F060F90346002B01D1002331
:101A5800FB7197F9073018460837BD4680BD00BFAF
:101A68000040005880B485B000AF78604FF0B043B4
:101A7800DA6C4FF0B0417B681343CB644FF0B0434E
:101A8800DA6C7B681340FB60FB6800BF1437BD4607
:101A980080BC704780B586B000AF3B1D00221A603D
:101AA8005A609A60DA601A610120FFF7DBFF0220B2
:101AB800FFF7D8FF0420FFF7D5FF00224FF4C561D8
:101AC800224804F003FD002240F231214FF09040FB
:101AD80004F0FCFC28237B600123BB600023FB602F
:101AE80003233B613B1D1946184804F0C1FA4FF423
:101AF800C0637B600123BB600023FB6000233B6164
:101B08003B1D1946114804F0B3FA31237B600123C9
:101B1800BB600023FB6003233B613B1D19464FF06C
:101B2800904004F0A5FA4FF400737B600123BB607A
:101B38000023FB6000233B613B1D19464FF090409A
:101B480004F096FA00BF1837BD4680BD000400486F
:101B580080B485B000AF78604FF0B043DA6C4FF0D6
:101B6800B0417B681343CB644FF0B043DA6C7B68B9
:101B78001340FB60FB6800BF1437BD4680BC70474C
:101B880080B485B000AF78604FF0B0439A6D4FF0E5
:101B9800B0417B6813438B654FF0B0439A6D7B6807
:101BA8001340FB60FB6800BF1437BD4680BC70471C
:101BB80080B500AF1B4B1C4A1A601A4B1B4A5A606F
:101BC800184B00229A60174B0122DA60154B00224D
:101BD8001A61144B00225A61124B00229A61114B70
:101BE8000022DA610F4B00221A620E4804F085FCCD
:101BF8000346002B01D000F087FA0021094805F0C0
:101C0800AAFF0346002B01D000F07EFA0021054808
:101C180005F0EBFF0346002B01D000F075FA00BF7A
:101C280080BD00BFC401002000580040FF373000CD
:101C380080B596B000AF786007F1440300221A60BF
:101C48005A609A60DA601A6107F10C0338220021A1
:101C580018461DF0ADF97B681B68294A93424BD1A1
:101C68008023FB604FF440237B6207F10C03184686
:101C780007F0C8FE0346002B01D000F045FA01200A
:101C8800FFF766FF0220FFF763FF4FF400437B6412
:101C98001223BB640123FB6401233B6504237B659A
:101CA80007F1440319464FF0904004F0E1F94FF46E
:101CB80000437B641223BB640123FB6401233B655F
:101CC80004237B6507F1440319460E4804F0D0F954
:101CD8004FF48000FFF754FF00220021202003F07A
:101CE800EEFA202003F005FB00220021212003F05A
:101CF800E6FA212003F0FDFA00BF5837BD4680BD43
:101D0800005800400004004880B485B000AF7860F7
:101D18004FF0B0439A6D4FF0B0417B6813438B6529
:101D28004FF0B0439A6D7B681340FB60FB6800BFBF
:101D38001437BD4680BC704780B500AF134B144ABA
:101D48001A60124B00225A60104B4FF460629A607E
:101D58000E4B4FF6FF725A610C4B00221A620B4B66
:101D680000225A62094B00229A62084B0022DA626A
:101D7800064B00221A63054805F0F4FF0346002BC2
:101D880001D000F0C1F900BF80BD00BF18020020DB
:101D9800007C004080B590B000AF786007F1080380
:101DA8003822002118461DF003F97B681B68114A88
:101DB80093421BD14FF40073BB604FF00C13BB620E
:101DC80007F10803184607F01DFE0346002B01D053
:101DD80000F09AF94FF00040FFF796FF002200212B
:101DE800272003F06CFA272003F083FA00BF40375E
:101DF800BD4680BD007C004080B483B000AF7860F1
:101E08004FF0B043D3F8903023F018024FF0B041B0
:101E18007B681343C1F8903000BF0C37BD4680BCC7
:101E28007047000080B500AF02F08CF800F028F889
:101E3800FFF730FE0BF0A0FA01F0C6F9FFF7B8FE85
:101E480000F0D6FAFFF778FF00F06AF900F0DAF947
:101E580000224FF400714FF0904004F037FB00224D
:101E68004FF48071054806F045F80BF08DFA00F044
:101E78009BF90346984700BFF7E700BF1802002008
:101E880080B59AB000AF07F1200348220021184618
:101E98001DF08EF807F1080300221A605A609A6054
:101EA800DA601A615A6106F03DFB0020FFF7A4FFD3
:101EB8001E4B1B6823F4C0631C4A43F40073136071
:101EC8001A4B1B6803F4C0637B607B6805233B6285
:101ED8004FF404137B628123FB620023BB6200235F
:101EE800FB6407F12003184606F068FE0346002B42
:101EF80001D000F009F94F23BB600223FB600023E7
:101F08003B6100237B610023BB610023FB6107F178
:101F180008030121184607F0D3F90346002B01D026
:101F280000F0F2F800BF6837BD4680BD00040058D5
:101F380080B592B000AF202387F8473001F020FE2B
:101F480097F8472007F124031146184601F0D4FDFD
:101F5800202387F8463097F846203B1D114618463F
:101F680001F087FD01F0ACFC00BF4837BD4680BDDD
:101F780080B500AF01F0CAFC00BF80BD80B586B057
:101F880004AFBB1C0393194B02933B1D0193BB1D6C
:101F98000093174B174A1849184801F0DFFCB7F9A6
:101FA80004301846FEF73EFA4FF00002144BFEF7D5
:101FB800CDFB02460B461349C1E90023114BD3E977
:101FC80000231149C1E90023B7F906301846FEF786
:101FD8000FFE03460D491846FEF712FF03461A4640
:101FE8000B4B1A6000BF0837BD4680BD5C0200205D
:101FF8005A020020580200205402002056020020F5
:102008000000694060020020680200200000C84209
:102018007002002080B582B000AF78607B68324AD9
:1020280093425ED1314B1B684B2B35D04B2B3CDC9C
:102038004A2B2DD04A2B38DC3B2B25D03B2B34DCCC
:10204800002B02D0012B1BD02FE0294B1B78002B33
:102058000AD001224FF400714FF0904004F036FA94
:10206800234B00221A701FE0224B1B788F2B1BD9A1
:1020780001224FF400714FF0904004F027FA13E06A
:102088001D4800F05DF810E01C4800F059F80CE01D
:102098001B4800F055F808E000224FF400714FF09B
:1020A800904004F013FA00E000BF164B1B88002B89
:1020B80007D100224FF400714FF0904004F006FA67
:1020C8000FE00A4B1B680133084A1360074B1B6873
:1020D8000C4A128893FBF2F101FB02F29B1A034AA5
:1020E80013600837BD4680BD180200207402002026
:1020F800020000205F020020391F0008851F000829
:10210800791F00080000002080B400AF72B600BF3D
:1021180000BFFDE780B400AF00BFBD4680BC70477C
:1021280080B400AF044B00221A60044B00221A60EE
:1021380000BFBD4680BC7047780200207C020020AA
:1021480080B483B000AF7860144B1B6801335A42E7
:1021580003F00F0302F00F0258BF5342104A1268EF
:10216800934201D1012314E00C4B1B685A1C0B4904
:102178000A600C497A6841F82320084B1B685A42C8
:1021880003F00F0302F00F0258BF5342034A1360D3
:10219800002318460C37BD4680BC704778020020E3
:1021A8007C0200208002002080B483B000AF114B75
:1021B8001A68114B1B689A4201D1104B14E00E4B60
:1021C8001B685A1C0C490A600D4A52F823307B6080
:1021D800094B1B685A4203F00F0302F00F0258BF65
:1021E8005342054A13607B6818460C37BD4680BCCD
:1021F800704700BF780200207C0200201D210008E3
:102208008002002080B400AF044B00221A60044B07
:1022180000221A6000BFBD4680BC7047C002002083
:10222800C402002080B400AF4FF0B043D3F8903020
:102238004FF0B04243F40043C2F8903000BFBD46AF
:1022480080BC704780B485B000AF78604FF0B04371
:102258009A6D4FF0B0417B6813438B654FF0B043E4
:102268009A6D7B681340FB60FB6800BF1437BD465E
:1022780080BC704780B58CB000AF3B1D2C2200217C
:1022880018461CF095FE224B224A1A60204B1F224A
:102298009A601F4B00221A611D4B00225A611C4B89
:1022A80000229A611A4B4FF08042DA61184B0022E3
:1022B8001A62174B4FF480725A62154807F0BCFC3B
:1022C8000346002B01D0FFF71FFF114807F0B2FFAC
:1022D8000346002B01D0FFF717FF00233B620023C2
:1022E800BB600023BB614FF00053FB614FF4807368
:1022F800FB623B1D00221946054807F01FFD0346F7
:10230800002B01D0FFF700FF00BF3037BD4680BD6E
:10231800C80200200028004080B590B000AF786067
:1023280007F108033822002118461CF041FE7B689B
:102338001B68164A934225D14FF48033BB604FF493
:102348008073FB6307F10803184607F05BFB03463D
:10235800002B01D0FFF7D8FEFFF764FF4FF4806031
:10236800FFF770FF00220021022002F0A8FF0220E0
:1023780002F0BFFF002200212A2002F0A0FF2A203D
:1023880002F0B7FF00BF4037BD4680BD00280040BF
:1023980080B485B000AF78604FF0B043DA6C4FF08E
:1023A800B0417B681343CB644FF0B043DA6C7B6871
:1023B8001340FB60FB6800BF1437BD4680BC704704
:1023C80080B485B000AF78604FF0B0439A6D4FF09D
:1023D800B0417B6813438B654FF0B0439A6D7B68BF
:1023E8001340FB60FB6800BF1437BD4680BC7047D4
:1023F80080B500AF1B4B1C4A1A601A4B4FF482720F
:102408005A60184B00229A60164B4FF4E062DA606B
:10241800144B00221A61134B00225A61114B4FF4DE
:1024280000729A610F4B1822DA610E4B00221A6271
:102438000C4B00225A620B4B00229A62094B07226E
:10244800DA62084B00221A63064B08225A630548D1
:1024580007F07EFF0346002B01D0FFF755FE00BFB3
:1024680080BD00BF000300200038004080B588B060
:1024780000AF786007F10C0300221A605A609A6076
:10248800DA601A617B681B68194A93422CD14FF4B1
:102498008040FFF795FF0220FFF77AFF0120FFF742
:1024A80077FF4FF4C043FB6002233B6100237B614D
:1024B8000023BB610523FB6107F10C0319460D4896
:1024C80003F0D6FD4FF48063FB6002233B610023D9
:1024D8007B610023BB610523FB6107F10C031946EF
:1024E8004FF0904003F0C4FD00BF2037BD4680BDCB
:1024F800003800400004004880B400AF034B0122BC
:10250800C3F8882000BFBD4680BC7047000400584F
:1025180080B400AF00BFBD4680BC704780B400AF38
:1025280000BFBD4680BC704780B500AF01F02AFDF2
:10253800FFF7E2FF012006F087F800BF80BD80B5F5
:1025480000AF01F02DFD01F089F800BF80BD80B516
:1025580000AF01F017FD0121002005F0F1FF00BFD9
:1025680080BD80B500AF01F01BFD00BF80BD80B409
:1025780000AF00BFBD4680BC704780B400AF00BF4D
:10258800FDE780B400AF00BFFDE780B400AF00BF37
:10259800FDE780B400AF00BFFDE780B400AF00BF27
:1025A800FDE780B400AF00BFBD4680BC704780B473
:1025B80000AF00BFBD4680BC704780B400AF00BF0D
:1025C800BD4680BC704780B400AF00BFBD4680BC2C
:1025D8007047000080B500AF024807F067FE00BFF3
:1025E80080BD00BFC802002080B500AF024803F0DC
:1025F80017F900BF80BD00BFC404002080B500AF3C
:10260800024803F00DF900BF80BD00BF240500207B
:1026180080B500AF024804F019FA00BF80BD00BFC2
:10262800C401002080B500AF024804F029FA00BFB9
:1026380080BD00BFC401002080B500AF024808F08B
:1026480063FD00BF80BD00BF9C03002080B500AFC4
:10265800024808F059FD00BF80BD00BF30040020CB
:1026680080B500AF024805F0D7FC00BF80BD00BFB1
:102678001802002080B500AF024807F0C7FC00BF71
:1026880080BD00BFC802002080B500AF024808F036
:102698004FFA00BF80BD00BF6403002080B500AFC3
:1026A800024803F079FA00BF80BD00BF240500206E
:1026B80080B485B000AF78604FF0B0435A6E4FF0E9
:1026C800B0417B6813434B664FF0B0435A6E7B684A
:1026D8001340FB60FB6800BF1437BD4680BC7047E1
:1026E80080B500AF064B08221A60054807F09EFF28
:1026F8000346002B01D0FFF707FD00BF80BD00BFD8
:102708006403002080B582B000AF78600120FFF735
:10271800CFFF00220021322002F0D1FD322002F04A
:10272800E8FD00BF0837BD4680BD80B483B000AF68
:1027380078604FF0B0439B6823F400424FF0B041FB
:102748007B6813438B6000BF0C37BD4680BC704765
:1027580080B400AF024B1B681846BD4680BC70476A
:102768008075FF1F80B400AF034B1B68DBB21846AF
:10277800BD4680BC704700BF8475FF1F80B400AFA2
:10278800034B1B681B0A1846BD4680BC704700BF38
:102798008475FF1F80B500AF0020FFF7C6FF1BF050
:1027A800D1FE0E4B01221A7000F0B6F91CF05AF94E
:1027B8000B481CF005FA0B4B4FF400421A6102203B
:1027C8001CF00CFAFEF764FE00F0DEF91BF0EEF8E0
:1027D800012101201BF02AF900BF80BD70030020F1
:1027E800192A00080040005880B500AF1BF04EF9C8
:1027F80000BF80BD90B585B000AF0023FB71FEF728
:1028080055FE0346FB81FB8940F6B832934202D954
:10281800FE23FB7114E0FB89B3F5E16F02D20023BC
:10282800FB710DE0FB89A3F5E1631A461346DB0152
:102838009B1A5B001A461A4BA3FB0223DB09FB71A8
:10284800184B1B885A1C91B2164A11801C46FEF779
:102858002DFE03461A46144B23F81420114B1B88EF
:1028680003F00F039AB20F4B1A800023FB81002359
:10287800BB6009E00C4ABB6832F81320FB8913449B
:10288800FB81BB680133BB60BB680F2BF2DDFB89A2
:10289800DB099BB2FB71FB7918461437BD4690BD26
:1028A800B5814E1B720300207403002080B588B0E8
:1028B80000AF0023FB833B1D184600F03BF9BB68C3
:1028C8001846FEF739FB0346FB83B7F91E30184656
:1028D8002037BD4680BD90B587B000AF7860002333
:1028E8007B61FFF735FF78617B69B3F1FF3F38D132
:1028F80001F06EFB044601F07FFB034623443B6175
:1029080001F070FBF8603B691A0E7B680733D2B29E
:102918001A703B691A0C7B680633D2B21A703B698D
:102928001A0A7B680533D2B21A707B6804333A6995
:10293800D2B21A70FB681A0E7B680333D2B21A70CF
:10294800FB681A0C7B680233D2B21A70FB681A0A49
:102958007B680133D2B21A70FB68DAB27B681A70EE
:1029680031E07B6807337A69D2B21A707B691A0A38
:102978007B680633D2B21A707B691A0C7B68053300
:10298800D2B21A707B691A0E7B680433D2B21A70FD
:10299800FFF7E8FE78617B6803337A69D2B21A7070
:1029A800FFF7ECFE78617B6802337A69D2B21A705D
:1029B8007B691A0A7B680133D2B21A707B691B0CD7
:1029C800DAB27B681A7000BF1C37BD4690BD90B55F
:1029D80083B000AF7860FFF7BBFE02467B681A60E1
:1029E8007B681B68B3F1FF3F0DD101F0F1FA044693
:1029F80001F0F8FA03465C4001F0FEFA034684EA67
:102A080003027B681A6000BF0C37BD4690BD00000A
:102A180080B586B002AF7860396007F108031846C0
:102A28001BF044F9BB68B7F90C200092074A102143
:102A3800786800F01DF87868FDF79AFB03469AB2AB
:102A48003B681A8000BF1037BD4680BDF8F1010809
:102A580080B500AF012102201AF0B8FF00BF80BD89
:102A680080B500AF002102201AF0B0FF00BF80BD82
:102A78000CB480B584B000AF7860396007F11C03EE
:102A8800FB603968FB68BA6978681BF07BFA00BF9D
:102A98001037BD46BDE8804002B0704780B483B0AF
:102AA80000AF7860002318460C37BD4680BC7047DD
:102AB80080B582B000AF00237B60064B1B78002BEB
:102AC80002D000F02DF978607B6818460837BD46BB
:102AD80080BD00BF7003002080B582B000AF786071
:102AE8007B68184600F0A3F900BF0837BD4680BDD3
:102AF80080B483B000AF7860064BD3F890200549C6
:102B08007B681343C1F8903000BF0C37BD4680BCCA
:102B1800704700BF0008005880B500AF4FF48040F0
:102B2800FFF7E6FF01F072FA01F076FA01F07AFA9F
:102B380000BF80BD80B487B000AF78600D4B7B616B
:102B48000D4B3B610D4BFB607B687A699A607B6833
:102B58003A695A607B68FA681A607B68084ADA60E2
:102B68007B68084A1A61002318461C37BD4680BC9A
:102B7800704700BF000048420000904100007A44BE
:102B88000D093E00AB03050080B483B000AF0023FD
:102B98007B60002318460C37BD4680BC704780B464
:102BA80000AF00BFBD4680BC704780B483B000AFA3
:102BB80078607B689B6818460C37BD4680BC7047B8
:102BC80080B582B000AF0023FB71144B1B7883F0F3
:102BD8000103DBB2002B1BD0114B4FF0FF321A63FD
:102BE800FFF748FB00F056F84FF480710C4807F0E7
:102BF800B1F90B4B4FF0FF321A63094807F0E8FAB6
:102C0800002000F0D3F900F05FF8044B01221A709D
:102C1800FB7918460837BD4680BD00BF94030020E5
:102C2800C802002080B58EB000AF7860002387F816
:102C3800373007F108032C22002118461CF0B8F998
:102C480000F028F8114B1B687A6813447B60002356
:102C58007B627B68DB43FB600023FB614FF0005322
:102C68003B624FF480733B6307F108030122194666
:102C7800074807F063F80346002B01D0FFF744FA32
:102C880097F8373018463837BD4680BD980300207E
:102C9800C802002080B582B000AF0023FB71084B4A
:102CA8000122DA654FF48071064807F053F9054BA5
:102CB8004FF0FF321A63FB7918460837BD4680BDCE
:102CC80000280040C802002080B500AF00F08EF94F
:102CD8000346034A1360024B1B68184680BD00BFB9
:102CE8009803002080B400AF024B1B681846BD460D
:102CF80080BC70479803002080B582B000AF0023E5
:102D08007B6000F073F90246044B1B68D31A7B60A2
:102D18007B6818460837BD4680BD00BF9803002071
:102D280080B582B000AF00237B60064B1B78002B78
:102D380002D000F05BF978607B6818460837BD461A
:102D480080BD00BF9403002080B483B000AF00238F
:102D58007B6003237B607B6818460C37BD4680BCCC
:102D68007047B0B584B000AF78600021F960796829
:102D780000200A460346950D94024FF47A724FF0EC
:102D8800000320462946FEF7FDF802460B46134687
:102D9800FB60FB6818461037BD46B0BD2DE9B00F83
:102DA80085B000AF78600021F960796800200C4692
:102DB8000546204629464FF0000A4FF0000B4FEA1F
:102DC800411B4BEAD06B4FEA401A50465946021B4A
:102DD80061EB05034FF000004FF00001990041EA54
:102DE8009271900002460B4612EB040843EB05096A
:102DF8004FF000024FF000034FEAC90343EA58734B
:102E08004FEAC80290469946404649464FF00002AC
:102E18004FF00003820A42EA81528B0A1346FB6094
:102E2800FB6818461437BD46BDE8B00F704780B53B
:102E380084B000AF78607868FFF793FFF86000F01F
:102E4800D5F8B86000E000BF00F0D0F80246BB68D3
:102E5800D31AFA689A42F6D800BF00BF1037BD46A9
:102E680080BD80B582B000AF78601BF0B9FC00BFB0
:102E78000837BD4680BD80B584B000AF786000F0EB
:102E8800A5F8F860FB680133184600F08FF800BF1A
:102E98001037BD4680BD2DE9B04F8CB000AF7861CA
:102EA8000023FB6200F0A2F8B86200F08FF87862A5
:102EB8007B6A0022BB60FA604FF000024FF000030B
:102EC800B9680B000022B96A00200C46054612EBCF
:102ED800040843EB0509C7E90689D7E906014FF05D
:102EE80000024FF00003820A42EA81528B0A13461D
:102EF800FB62BB6900223B607A603B68C3F3090A46
:102F08004FF0000BC7E906ABBB691846FFF746FF51
:102F180003469AB27B691A80FB6A18463037BD4669
:102F2800BDE8B08F80B582B000AF78607A680021C4
:102F3800034807F0DFF900BF0837BD4680BD00BF72
:102F4800C802002080B582B000AF78607A6801219D
:102F5800034807F0CFF900BF0837BD4680BD00BF62
:102F6800C802002080B582B000AF00237B6000213A
:102F7800044807F0D7F978607B6818460837BD46DB
:102F880080BD00BFC802002080B582B000AF00231A
:102F98007B600121044807F0C5F978607B68184612
:102FA8000837BD4680BD00BFC802002080B582B08A
:102FB80000AF78607A680221034807F09BF900BFE8
:102FC8000837BD4680BD00BFC802002080B582B06A
:102FD80000AF0221044807F0A5F978607B6818461D
:102FE8000837BD4680BD00BFC802002080B582B04A
:102FF80000AF0B48FFF7D9FD786003E00848FFF7FA
:10300800D4FD78600648FFF7D0FD02467B689342FE
:10301800F4D17B68DB4318460837BD4680BD00BF46
:103028000028004080B485B000AF78604FF0B0430E
:10303800DA6C4FF0B0417B681343CB644FF0B04378
:10304800DA6C7B681340FB60FB6800BF1437BD4631
:1030580080BC704780B485B000AF78604FF0B04353
:103068009A6D4FF0B0417B6813438B654FF0B043C6
:103078009A6D7B681340FB60FB6800BF1437BD4640
:1030880080BC704780B483B000AF78604FF0B04325
:103098009A6D7B68DB434FF0B04113408B6500BFEE
:1030A8000C37BD4680BC704780B485B000AF7860EF
:1030B8004FF0B0431A6E4FF0B0417B6813430B6674
:1030C8004FF0B0431A6E7B681340FB60FB6800BF8B
:1030D8001437BD4680BC704780B483B000AF7860B9
:1030E8004FF0B0431A6E7B68DB434FF0B04113409A
:1030F8000B6600BF0C37BD4680BC704780B483B0F8
:1031080000AF7860054B5A6804497B6813434B60ED
:1031180000BF0C37BD4680BC704700BF00000140AF
:1031280080B500AF264B274A1A60254B4FF4E13291
:103138005A60234B00229A60214B0022DA60204B10
:1031480000221A611E4B0C225A611D4B00229A6103
:103158001B4B0022DA611A4B00221A62184B00221C
:103168005A62174B40229A62154B4FF480125A64E8
:10317800134B00229A64124807F0A9FE0346002B5D
:1031880001D0FEF7C1FF00210D480AF00AF80346F6
:10319800002B01D0FEF7B8FF002109480AF03FF8DC
:1031A8000346002B01D0FEF7AFFF054809F086FF64
:1031B8000346002B01D0FEF7A7FF00BF80BD00BF6C
:1031C8009C0300200038014080B500AF234B244AFF
:1031D8001A60224B4FF416525A60204B00229A6014
:1031E8001E4B0022DA601D4B00221A611B4B0C2279
:1031F8005A611A4B00229A61184B4FF40042DA6167
:10320800164B00221A62154B00225A62134B0022F9
:103218009A62124807F05BFE0346002B01D0FEF7C6
:1032280073FF00210D4809F0BCFF0346002B01D0B5
:10323800FEF76AFF0021094809F0F1FF0346002B59
:1032480001D0FEF761FF054809F073FF0346002B24
:1032580001D0FEF759FF00BF80BD00BF3004002039
:103268000044004080B59AB000AF786007F154037D
:1032780000221A605A609A60DA601A6107F1440302
:1032880000221A605A609A60DA6007F10C0338224B
:10329800002118461BF08CFE7B681B686F4A93421E
:1032A80040F0A4800123FB604FF440333B6107F1F9
:1032B8000C03184606F0A6FB0346002B01D0FEF7C8
:1032C80023FF4FF48040FFF7EFFE0220FFF7AAFE2E
:1032D800C0237B650223BB650123FB6501233B6695
:1032E80007237B6607F1540319465D4802F0C0FEC8
:1032F8004FF40030FFF702FF4FF48030FFF7FEFE77
:10330800584B594A1A60574B12225A60554B102293
:103318009A60544B0022DA60524B80221A61514B5A
:1033280000225A614F4B00229A614E4B0022DA610B
:103338004C4B00221A624B4801F0F8FF0346002B61
:1033480001D0FEF7E1FE7B68464ADA67454A7B68AA
:103358009362464B464A1A60444B11225A60434BCB
:1033680000229A60414B0022DA60404B80221A61A9
:103378003E4B00225A613D4B00229A613B4B002292
:10338800DA613A4B00221A62384801F0CFFF03464F
:10339800002B01D0FEF7B8FE00237B640023BB643A
:1033A800002387F84C30012387F84D3001233B6513
:1033B80007F1440319462D4802F0AEFB0346002BE3
:1033C80001D0FEF7A1FE7B68284AC3F88020274A6F
:1033D8007B68936200220221242001F070FF2420E0
:1033E80001F087FF0C2001F084FF33E07B681B6845
:1033F800204A93422ED10223FB604FF440237B6185
:1034080007F10C03184606F0FDFA0346002B01D01D
:10341800FEF77AFE4FF40030FFF71CFE0120FFF79D
:1034280001FE0C237B650223BB650123FB65012399
:103438003B6607237B6607F1540319464FF090401B
:1034480002F016FE00220021252001F038FF252079
:1034580001F04FFF00BF6837BD4680BD003801400E
:1034680000040048C404002008000240240500208D
:103478001C0002400044004080B582B000AF786074
:103488007B681B68174A934216D14FF48040FFF7B8
:1034980023FEC021144802F04BFF7B68DB6F1846FF
:1034A80001F0ECFF7B68D3F88030184601F0E6FFA6
:1034B800242001F02CFF10E07B681B680B4A934224
:1034C8000BD14FF40030FFF7DDFD0C214FF0904099
:1034D80002F02EFF252001F01AFF00BF0837BD4675
:1034E80080BD00BF0038014000040048004400408F
:1034F80080B483B000AF78604FF0B0431A6C4FF0DF
:10350800B0417B6813430B6400BF0C37BD4680BCD9
:10351800704780B483B000AF78604FF0B0431A6C46
:103528007B68DB434FF0B04113400B6400BF0C379E
:10353800BD4680BC7047000080B483B000AF78609F
:10354800064BD3F8802005497B681343C1F88030C7
:1035580000BF0C37BD4680BC704700BF000800584C
:1035680080B582B000AF7860074A7B681360FEF7C9
:1035780007F8FFF7D5FD4FF08060FFF7DDFF002368
:1035880018460837BD4680BD8805002080B500AFC5
:103598004FF48040FFF7ACFF4FF48040FFF7B9FFCE
:1035A8000448FFF769FF0F2001F0B1FE0023184619
:1035B80080BD00BF9C03002080B582B000AF78605A
:1035C8000B467B807B881A467968044807F01CFD07
:1035D800002318460837BD4680BD00BF9C03002065
:1035E80080B584B000AF7860194A7B6813604FF4E7
:1035F8000013BB6007F1080393E80600154809F0BB
:10360800D0FC00BF134B1B68DB6903F48033B3F5B0
:10361800803FF7D000BF0F4B1B68DB6903F48003C2
:10362800B3F5800FF7D10B4B1B689A68094B1B68E1
:1036380042F480029A60074809F00EFD012206490B
:10364800044807F095FC002318461037BD4680BD96
:103658008C0500209C0300208405002080B500AF65
:10366800084807F034FC0346002B01D0FEF74CFD58
:10367800054801F05BFE0346002B01D0FEF744FD30
:1036880000BF80BD9C030020C404002080B582B028
:1036980000AF78607B681B68054A934203D1054BED
:1036A8001B680020984700BF0837BD4680BD00BF93
:1036B800003801408805002080B582B000AF7860EE
:1036C8007B681B68114A934213D1114B1B68002B6E
:1036D8000AD07B68D3F89030002B05D10C4B1B68BF
:1036E800002201210B48984701220A49786807F00F
:1036F8003FFC7B681B68084A934202D1074B0122B2
:103708001A7000BF0837BD4680BD00BF00380140B1
:103718008C0500208405002000440040080000209B
:103728000D488546FFF73BFA0C480D490D4A002322
:1037380002E0D458C4500433C4188C42F9D30A4A5E
:103748000A4C002301E013600432A242FBD31BF0B1
:1037580037FCFEF767FBFEE70000012000000020B1
:103768003C01002014FF01084001002058200020DF
:10377800FEE780B586B000AF3B1D00221A605A6094
:103788009A60DA601A6110237B600123BB60002312
:10379800FB6003233B613B1D19464FF0904002F04C
:1037A80067FC20237B603B1D19464FF0904002F0D8
:1037B8005FFC002220214FF0904002F087FE00229B
:1037C80010214FF0904002F081FE00231846183770
:1037D800BD4680BD80B582B000AF0346FB71FB7962
:1037E800032B3FD801A252F823F000BF0538000888
:1037F8001F38000839380008533800080022102103
:103808004FF0904002F062FE002220214FF09040DD
:1038180002F05CFE27E0012210214FF0904002F0F8
:1038280055FE002220214FF0904002F04FFE1AE092
:10383800012210214FF0904002F048FE0122202181
:103848004FF0904002F042FE0DE0002210214FF0B0
:10385800904002F03BFE012220214FF0904002F000
:1038680035FE00E000BF002318460837BD4680BD7E
:1038780080B400AF02231846BD4680BC704780B4B0
:1038880000AF01231846BD4680BC704780B400AF26
:1038980001231846BD4680BC704780B485B000AF90
:1038A8000346FB71FB79002B02D10F23FB6001E07B
:1038B8001623FB60FB6818461437BD4680BC70476A
:1038C80080B582B000AF0023FB80F9883B462122F7
:1038D800184600F00FFA0346FB80FA883B46194663
:1038E800692000F029FA0346BB80B7F90430002BA1
:1038F80002D0B7F9043004E04CF2503000F0CAFAB4
:10390800002318460837BD4680BD000080B582B048
:1039180000AF0023FB80F9883B464FF482721846BB
:1039280000F0E8F90346FB80FA883B46194669200F
:1039380000F002FA0346BB80B7F90430002B02D02E
:10394800B7F9043003E0044800F0A4FA002318464D
:103958000837BD4680BD00BF400D030080B58CB060
:1039680000AFF860B9607A603B600023FB85F98D91
:1039780007F114034FF47172184600F0BBF90346BF
:10398800FB85FA8D07F114031946692000F0D4F974
:103998000346BB85B7F92C30002B02D0B7F92C3081
:1039A80063E044F6206000F075FA07F11403102272
:1039B8001946692000F0D3F90346BB85B7F92C30C6
:1039C800002B02D0B7F92C304FE007F1140318464A
:1039D80000F0FEF803461A46FB681A8007F1140344
:1039E8000233184600F0F4F803461A46BB681A80FA
:1039F80007F114030433184600F0EAF803461A46A0
:103A08007B681A8007F114030633184600F0E0F8C3
:103A180003461A463B681A8007F114030833184610
:103A280000F0EBF803461A46BB6B1A8007F1140343
:103A38000A33184600F0E1F803461A46FB6B1A8071
:103A480007F114030C33184600F0D7F803469AB26E
:103A58003B6C1A8007F114030E33184600F0CDF8BA
:103A680003469AB27B6C1A80002318463037BD464D
:103A780080BD80B590B000AF78600B46FB70002326
:103A8800FB87F98F07F10C034DF21402184600F07A
:103A980031F90346FB87FA8F07F10C0319466920B1
:103AA80000F04AF90346BB87B7F93C30002B02D037
:103AB800B7F93C301CE04CF2503000F0EBF907F15C
:103AC8000C0320221946692000F049F90346BB87F8
:103AD800B7F93C30002B02D0B7F93C3008E0FB784E
:103AE8009AB207F10C037968184600F093F800239E
:103AF80018464037BD4680BD80B590B000AF7860AD
:103B08000B46FB700023FB87F98F07F10C034DF27E
:103B18003302184600F0EEF80346FB87FA8F07F1E8
:103B28000C031946692000F007F90346BB87B7F96B
:103B38003C30002B02D0B7F93C301CE04CF250303E
:103B480000F0A8F907F10C0320221946692000F0BB
:103B580006F90346BB87B7F93C30002B02D0B7F90A
:103B68003C3008E0FB789AB207F10C0379681846F4
:103B780000F050F8002318464037BD4680BD0000CD
:103B880080B582B000AF0023FB80F9883B464DF238
:103B98000432184600F0AEF80346FB80FA883B462C
:103BA8001946692000F0C8F80346BB80B7F904300D
:103BB800002B02D0B7F9043003E0044800F06AF99A
:103BC800002318460837BD4680BD00BF400D0300DE
:103BD80080B483B000AF78607B681B781BB21B028F
:103BE8001AB27B6801331B781BB213431BB29BB21A
:103BF80018460C37BD4680BC704780B582B000AF10
:103C080078607868FFF7E4FF03461BB21846083768
:103C1800BD4680BD80B487B000AFF860B960134678
:103C2800FB800023FB820AE0FB8AFA681A44FB8ABD
:103C3800B9680B4412781A70FB8A0133FB82FA8A3E
:103C4800FB889A42F0D300BF00BF1C37BD4680BC3A
:103C5800704780B485B000AF78600B467B80FF2347
:103C68007B730023FB8122E0FB897A6813441A786E
:103C78007B7B53407B7308233B7312E097F90D302D
:103C8800002B08DA97F90D305B005BB283F0310343
:103C98005BB27B7302E07B7B5B007B733B7B013B0E
:103CA8003B733B7B002BE9D1FB890133FB81FA890C
:103CB8007B889A42D8D37B7B18461437BD4680BC94
:103CC800704780B582B000AF78600B467B801346A2
:103CD8007B707B8819467868FFF7BBFF03461A4656
:103CE8007B78934201D0012300E00023184608376F
:103CF800BD4680BD80B483B000AF78600B467B8042
:103D080013463B803B881B0A9AB27B88591C7980F2
:103D180019467B680B44D2B21A707B885A1C7A8089
:103D28001A467B6813443A88D2B21A707B881846C0
:103D38000C37BD4680BC704780B582B000AF0346E3
:103D48003960FB711346BB80BA88FB79396818461D
:103D580000F084F8034618460837BD4680BD80B594
:103D680084B000AF03463960FB711346BB80BB8843
:103D78005B089BB21A46520013447B81BB8803F050
:103D880001039BB2002B01D0042347E07A89FB7919
:103D98003968184600F046F803463B81B7F9083001
:103DA800002B02D0B7F9083038E00023FB8100234C
:103DB800BB812EE0FB893A68D018FB8902333A6848
:103DC80013441B781A460221FFF77BFF03463B8109
:103DD800B7F90830002B02D0B7F908301EE0FB898C
:103DE8003A681A44BB89591CB98119463B680B4487
:103DF80012781A70FB8901333A681A44BB89591C36
:103E0800B98119463B680B4412781A70FB89033351
:103E1800FB81FA897B899A42CCD300231846103754
:103E2800BD4680BD80B584B002AF03463960FB71E2
:103E38001346BB80FB799BB25B0099B2BB886422B6
:103E480000923A68044802F00BFD03465BB218463C
:103E58000837BD4680BD00BFC401002080B584B0CE
:103E680002AF03463960FB711346BB80FB799BB2F6
:103E78005B0099B2BB88642200923A68044802F059
:103E8800D7FB03465BB218460837BD4680BD00BF66
:103E9800C401002080B584B000AF78607B68124A06
:103EA800A2FB03239B09FB607A680F4BA3FB021359
:103EB8009B094FF47A7101FB03F3D31A002B02D04C
:103EC800FB680133FB6000F079F80346074A934228
:103ED80002D2FB680133FB60F868FEF7FDFD00BF06
:103EE8001037BD4680BD00BFD34D621000010101EF
:103EF80080B400AF044B5B68034A43F0010353608E
:103F080000BFBD4680BC7047002004E080B400AF0D
:103F1800044B5B68034A43F00203536000BFBD468D
:103F280080BC7047002004E080B400AF044B5B689D
:103F3800034A43F00403536000BFBD4680BC70478A
:103F4800002004E080B582B000AF0023FB7103209D
:103F580001F0AAF905F078FB0346094A13600F201F
:103F6800FEF79CFD0346002B02D00123FB7101E004
:103F7800FEF7FDFAFB7918460837BD4680BD00BF3D
:103F88000400002080B400AF044B1B68034A23F0F0
:103F98000203136000BFBD4680BC704710E000E01C
:103FA80080B400AF044B1B68034A43F0020313605C
:103FB80000BFBD4680BC704710E000E080B400AF91
:103FC800024B1846BD4680BC704700BF0001030184
:103FD80080B400AF024B1B681846BD4680BC7047D2
:103FE8009075FF1F80B400AF024B1B681846BD4692
:103FF80080BC70479475FF1F80B400AF024B1B68EC
:104008001846BD4680BC70479875FF1F80B500AF45
:10401800FFF76EFF00BF80BD80B500AFFFF776FFEA
:1040280000BF80BD80B500AFFFF77EFF00BF80BD39
:1040380080B483B000AF786039607B681B6823F078
:10404800E0723B681A437B681A6000BF0C37BD46B4
:1040580080BC704780B483B000AF78607B681B6811
:1040680003F0E07318460C37BD4680BC704780B437
:1040780085B000AFF860B9607A60FB685A69BB68C0
:1040880003F00403072101FA03F3DB431A40BB687A
:1040980003F00403796801FA03F31A43FB685A61D1
:1040A80000BF1437BD4680BC704780B483B000AFF2
:1040B800786039607B685A693B6803F0040307211C
:1040C80001FA03F31A403B6803F0040322FA03F3EE
:1040D80018460C37BD4680BC704780B483B000AF2B
:1040E80078607B68DB6803F44063002B01D101230F
:1040F80000E0002318460C37BD4680BC704780B4EA
:1041080085B000AFF860B9607A60FB689A6ABB68EE
:1041180003F01F030F2101FA03F3DB431A407B6806
:104128009B0E03F00F01BB6803F01F0301FA03F3B2
:104138001A43FB689A6200BF1437BD4680BC7047BB
:1041480080B483B000AF786039607B689A6A3B6856
:10415800C3F311031A437B689A6200BF0C37BD464C
:1041680080BC704780B483B000AF786039607B68EA
:104178009A6A3B68C3F31103DB431A407B689A626F
:1041880000BF0C37BD4680BC704780B485B000AF17
:10419800F860B9607A60FB685A69BB681B02DB4348
:1041A8001A40BB6819027B680B4023F07C4323F05C
:1041B800FF031A43FB685A6100BF1437BD4680BC31
:1041C800704780B483B000AF78607B689B6823F049
:1041D800104323F0170343F080527B689A6000BFB6
:1041E8000C37BD4680BC704780B483B000AF7860A0
:1041F8007B689B6823F0104323F017037A68936069
:1042080000BF0C37BD4680BC704780B483B000AF98
:1042180078607B689B6803F08053B3F1805F01D1BD
:10422800012300E0002318460C37BD4680BC7047C8
:1042380080B483B000AF78607B689B6823F000434C
:1042480023F0170343F001027B689A6000BF0C3724
:10425800BD4680BC704780B483B000AF78607B688F
:104268009B6823F0004323F0170343F002027B68A6
:104278009A6000BF0C37BD4680BC704780B483B0DD
:1042880000AF78607B689B6803F00103012B01D1C4
:10429800012300E0002318460C37BD4680BC704758
:1042A80080B483B000AF78607B689B6803F002033A
:1042B800022B01D1012300E0002318460C37BD462C
:1042C80080BC704780B483B000AF78607B689B681F
:1042D80023F0004323F0170343F004027B689A603D
:1042E80000BF0C37BD4680BC704780B483B000AFB8
:1042F80078607B689B6823F0004323F0170343F042
:1043080010027B689A6000BF0C37BD4680BC7047BE
:1043180080B483B000AF78607B689B6803F00403C7
:10432800042B01D1012300E0002318460C37BD46B9
:1043380080BC704780B588B000AF78600023FB77F9
:104348000023BB6100237B610023FB607B68002B9B
:1043580001D101237EE17B681B69002B7B689B6D83
:10436800002B09D17868FDF74DF87B680022DA65E3
:104378007B68002283F854207B681B681846FFF787
:1043880044FF0346002B15D17B681B681846FFF7CE
:1043980018FF9E4B1B689B099D4AA2FB03239B09A0
:1043A80001335B00FB6002E0FB68013BFB60FB68DC
:1043B800002BF9D17B681B681846FFF726FF0346D8
:1043C800002B0DD17B689B6D43F010027B689A65CA
:1043D8007B68DB6D43F001027B68DA650123FB77BC
:1043E8007B681B681846FFF793FF38617B689B6DF5
:1043F80003F01003002B40F024813B69002B40F0B0
:1044080020817B689B6D23F4817343F002027B68F3
:104418009A657B681B681846FFF730FF0346002B38
:1044280040F0A7807B689A687B681B7E9B031A43D1
:104438007B685B7EDB031A437B689B7E5B031343CD
:104448007A68126B002A02D04FF4805200E00022F2
:104458001A437B68DB681A437B681B69002B04DA04
:104468007B681B6923F0004301E04FF400131A43F3
:104478007B6893F82C305B001343BA691343BB6124
:104488007B6893F82030012B14D17B689B7E002B2E
:1044980004D1BB6943F48033BB610BE07B689B6D3F
:1044A80043F020027B689A657B68DB6D43F001026C
:1044B8007B68DA657B685B6A002B09D07B685B6A7E
:1044C80003F4E0727B689B6A1343BA691343BB61C8
:1044D8007B681B68DB6823F4FE3323F4FF737A6878
:1044E8001268B9690B43D3607B685B6803F040428C
:1044F8007B68DB6C13437A6913437B617B6893F8B1
:104508003C30012B11D17B685B6803F040427B682B
:104518001B6C1A437B685B6C1A437B689B6C1A4361
:104528007B69134343F001037B617B681B681A694D
:10453800384B13407A68126879690B4313617B68BA
:104548005B68B3F1404F14D07B685B68B3F1804F70
:104558000FD07B685B68B3F1004F0AD02E4B1B6805
:1045680023F470127B685B6803F470132A491343C1
:104578000B607B6818687B685B6B1A460021FFF745
:1045880076FD7B6818687B689B6B1A462349FFF7A2
:104598006EFD7B681B69002B08D17B681B689A6AD3
:1045A8007B681B6862F00F029A6217E07B681B69E0
:1045B800B3F5001F12D17B681B689B6A7B68DB69B7
:1045C800013B9B0003F01C036FF00F0202FA03F19A
:1045D8007B681A6E7B681B680A439A627B681B6853
:1045E80000211846FFF761FD02467B685B6B9A4223
:1045F80016D17B680022DA657B689B6D23F0030384
:1046080043F001027B689A6523E000BF04000020A4
:10461800632D3E0502FCFF1F0827014004FFFF032E
:104628007B689B6D23F0120343F010027B689A6548
:104638007B68DB6D43F001027B68DA650123FB7759
:1046480007E07B689B6D43F010027B689A65012345
:10465800FB77FB7F18462037BD4680BD80B584B008
:1046680000AF78607B68002B01D101237AE07B687A
:104678009B6D43F002027B689A65786800F0CEFA79
:104688000346FB73FB7B002B0FD1786800F092FB8D
:104698000346FB73FB7B002B02D17B6801229A65E2
:1046A8007B681B681846FFF79FFD7B681B685B6883
:1046B8007A68126823F4677323F0030353607B68F6
:1046C8001B6840F29F321A607B681B68D9687B6858
:1046D8001A68264B0B40D3607B681B685A697B6855
:1046E8001B6822F007025A617B681B689B6A7B681B
:1046F8001B6800229A627B681B681A6A7B681B68C1
:1047080002F0F0221A627B681B685A6A7B681B6891
:1047180002F0F0225A627B681B68DA6A7B681B68C1
:1047280002F0F022DA627B681B681A697B681B68F2
:1047380022F040421A610E4B1B680D4A23F0FE73AB
:1047480013607868FCF78AFE7B6800221A667B682B
:104758000022DA657B6800229A657B68002283F86C
:104768005420FB7B18461037BD4680BD00023E83AF
:104778000827014080B584B000AF78607B681B686B
:104788001846FFF7C5FD0346002B32D17B6893F826
:104798005430012B01D102232EE07B68012283F8DB
:1047A8005420786800F080FA0346FB73FB7B002BEB
:1047B8001AD17B689B6D23F4706323F0010343F4E3
:1047C80080727B689A657B680022DA657B681B6863
:1047D8001C221A607B68002283F854207B681B68BF
:1047E8001846FFF76FFD06E07B68002283F8542027
:1047F80001E00223FB73FB7B18461037BD4680BDE2
:1048080080B584B000AF78607B6893F85430012B92
:1048180001D1022322E07B68012283F854207868C2
:1048280000F0FCF90346FB73FB7B002B11D1786881
:1048380000F0C0FA0346FB73FB7B002B09D17B68B1
:104848009B6D23F4807323F0010343F001027B681E
:104858009A657B68002283F85420FB7B1846103742
:10486800BD4680BD80B584B000AF786039607B6894
:104878005B69082B02D10823FB6010E07B681B688A
:10488800DB6803F00103002B07D07B689B6D43F0C6
:1048980020027B689A65012377E00423FB60FEF71A
:1048A80007F9B86021E03B68B3F1FF3F1DD0FEF780
:1048B800FFF80246BB68D31A3A689A4202D33B68AB
:1048C800002B12D17B681B681A68FB681340002B09
:1048D8000BD17B689B6D43F004027B689A657B680B
:1048E800002283F8542003234FE07B681B681A6872
:1048F800FB681340002BD6D07B689B6D43F4007295
:104908007B689A657B681B681846FFF7E6FB0346D9
:10491800002B31D07B689B7E002B2DD17B681B68D8
:104928001B6803F00803082B26D17B681B68184610
:10493800FFF7EEFC0346002B12D17B681B685A6810
:104948007B681B6822F00C025A607B689B6D23F41D
:10495800807323F0010343F001027B689A650BE042
:104968007B689B6D43F020027B689A657B68DB6DF2
:1049780043F001027B68DA657B681B7E002B03D15C
:104988007B681B680C221A60002318461037BD4646
:1049980080BD80B483B000AF78607B681B681B6CF7
:1049A80018460C37BD4680BC7047000080B588B0FB
:1049B80000AF786039600023FB770023BB607B6819
:1049C8001B69B3F1004F7B6893F85430012B01D178
:1049D800022310E17B68012283F854207B681B685E
:1049E8001846FFF795FC0346002B40F0F7803B681C
:1049F8005B68022B00F0B1807B681B69B3F1004F44
:104A080004D07B681B697E4A934208D17B681A6888
:104A18003B681B6819461046FFF792FB41E07B682C
:104A28001A6E3B685B6803F01F030F2101FA03F35A
:104A3800DB431A403B681B68C3F31103002B05D105
:104A48003B681B689B0E03F01F0311E03B681B6863
:104A58003B613B6993FAA3F3FB60FB687B617B696D
:104A6800002B01D1202303E07B69B3FA83F3DBB287
:104A78003968496801F01F018B401A437B681A6640
:104A88003B685B689B085A1C7B68DB699A4208D8BC
:104A98007B6818683B6859683B681B681A46FFF7CB
:104AA8002EFB7B6818683B6819683B689B681A4648
:104AB800FFF76BFB3B681B68002B80F2978051481F
:104AC800FFF7C8FAB8613B681B684F4A934220D188
:104AD800BB6903F40003002B1BD1BB6943F400033B
:104AE80019464848FFF7A4FA484B1B689B09484AEF
:104AF800A2FB03239B095A1C13465B0013449B002B
:104B0800BB6002E0BB68013BBB60BB68002BF9D10E
:104B18006CE03B681B683F4A93420CD1BB6903F0C9
:104B28008073002B07D1BB6943F080731946354861
:104B3800FFF77EFA5AE03B681B68374A934255D123
:104B4800BB6903F48003002B50D1BB6943F4800395
:104B580019462C48FFF76CFA48E07B681B69B3F1EB
:104B6800004F04D07B681B69254A934207D17B68B4
:104B78001A683B681B6819461046FFF7F3FA3B684A
:104B88001B68002B32DA1F48FFF764FAB8613B68EC
:104B98001B681D4A934207D1BB6923F400031946D9
:104BA8001848FFF745FA21E03B681B68194A934209
:104BB80007D1BB6923F0807319461248FFF738FA0A
:104BC80014E03B681B68144A93420FD1BB6923F475
:104BD800800319460B48FFF72BFA07E07B689B6DAB
:104BE80043F020027B689A650123FB777B680022EB
:104BF80083F85420FB7F18462037BD4680BD00BF90
:104C08000400008008270140001000B004000020C4
:104C1800632D3E05004000B8002000B480B584B084
:104C280000AF78607B681B681846FFF771FB034686
:104C3800002B33D07B681B681846FFF731FB03460F
:104C4800002B04D17B681B681846FFF74EFBFDF765
:104C58002FFFF8601BE0FDF72BFF0246FB68D31A15
:104C6800022B14D97B681B689B6803F00403002B94
:104C78000DD07B689B6D43F010027B689A657B685A
:104C8800DB6D43F001027B68DA65012307E07B688E
:104C98001B689B6803F00403002BDCD10023184633
:104CA8001037BD4680BD000080B584B000AF786085
:104CB8000023BB607B681B681846FFF7DFFA0346D2
:104CC800002B69D17B681B689A68364B1340002B10
:104CD8000DD07B689B6D43F010027B689A657B68FA
:104CE800DB6D43F001027B68DA65012355E07B68E0
:104CF8001B681846FFF79CFA2B48FFF7ABF90346E9
:104D080003F40003002B0FD0284B1B689B09284A8B
:104D1800A2FB03239B090133BB6002E0BB68013B94
:104D2800BB60BB68002BF9D17B685B7E012B33D05D
:104D3800FDF7BEFEF86028E07B681B681846FFF7A1
:104D48009DFA0346002B04D17B681B681846FFF7C1
:104D58006FFAFDF7ADFE0246FB68D31A022B14D991
:104D68007B681B681B6803F00103012B0DD07B686F
:104D78009B6D43F010027B689A657B68DB6D43F09E
:104D880001027B68DA65012307E07B681B681B6802
:104D980003F00103012BCFD1002318461037BD467D
:104DA80080BD00BF170000800827014004000020D4
:104DB800632D3E0580B584B000AF78607B681B68C2
:104DC8001846FFF76DFAF8607B681B681846FFF70E
:104DD80055FA0346002B47D0FB68002B44D17B686B
:104DE8001B689B6803F00503012B0CD17B681B68CB
:104DF8001846FFF730FA7B681B6803221A60FDF734
:104E080057FEB86029E07B689B6D43F010027B6811
:104E18009A657B68DB6D43F001027B68DA650123E4
:104E280023E0FDF745FE0246BB68D31A022B14D9CE
:104E38007B681B689B6803F00103002B0DD07B681F
:104E48009B6D43F010027B689A657B68DB6D43F0CD
:104E580001027B68DA65012307E07B681B689B68B1
:104E680003F00103002BDCD1002318461037BD46A0
:104E780080BD80B483B000AF786039607B68D3F8B8
:104E8800B43023F07F023B681A437B68C3F8B42030
:104E980000BF0C37BD4680BC704780B483B000AFFC
:104EA80078607B68D3F8B43003F07F0318460C377A
:104EB800BD4680BC704780B483B000AF78607B6823
:104EC8009B6823F0004323F0170343F001027B683B
:104ED8009A6000BF0C37BD4680BC704780B483B071
:104EE80000AF78607B689B6823F0004323F01703CA
:104EF80043F002027B689A6000BF0C37BD4680BC55
:104F0800704780B483B000AF78607B689B6803F01B
:104F18000103012B01D1012300E0002318460C37BF
:104F2800BD4680BC704780B483B000AF78607B68B2
:104F38009B6823F0004323F0170343F000427B688B
:104F48009A6000BF0C37BD4680BC704780B483B000
:104F580000AF78607B689B6803F00043B3F1004FB3
:104F680001D1012300E0002318460C37BD4680BC60
:104F7800704780B588B000AF78600023BB6000231D
:104F8800BB617B6893F85430012B01D10223B9E04F
:104F98007B68012283F854207868FFF70BFF0346EB
:104FA800FB757B681B681846FFF7ABFF0346002BB1
:104FB80040F09D807B689B6D23F4817343F002026F
:104FC8007B689A657B681B68DA6848F203031340BC
:104FD8003B617B681B68DB687A68126823F40043CE
:104FE80023F00303D3600023FB612EE07B681B687A
:104FF8001846FFF798FF14E0BB680133BB60BB6835
:10500800B3F52E3F0DD37B689B6D23F0120343F05D
:1050180010027B689A657B68002283F8542001237C
:1050280070E07B681B681846FFF790FF0346002B6B
:10503800E2D17B681B681846FFF72FFF0246BB6961
:105048001344BB61FB690133FB61FB69072BCDD9B5
:10505800BA69FB69B2FBF3F3BB617B681B6818464E
:10506800FFF729FF7B681B68B9691846FFF701FF3E
:105078007B681B681846FFF731FFFDF719FDF860DC
:105088001CE0FDF715FD0246FB68D31A022B15D963
:105098007B681B681846FFF734FF0346002B0DD0CA
:1050A8007B689B6D43F010027B689A657B68DB6DBB
:1050B80043F001027B68DA65012323E07B681B6803
:1050C8001846FFF71EFF0346002BDAD17B681B68E2
:1050D800D9687B681B683A690A43DA607B689B6D0C
:1050E80023F0030343F001027B689A6505E07B68BF
:1050F8009B6D43F010027B689A657B68002283F8F9
:105108005420FB7D18462037BD4680BD80B485B04D
:1051180000AF78607B6803F00703FB600C4BDB682B
:10512800BB60BA684FF6FF031340BB60FB681A0206
:10513800BB68134343F0BF6343F40033BB60044AC6
:10514800BB68D36000BF1437BD4680BC704700BF42
:1051580000ED00E080B400AF044BDB681B0A03F0ED
:1051680007031846BD4680BC704700BF00ED00E04D
:1051780080B483B000AF0346FB7197F90730002B6A
:105188000BDBFB7903F01F02064997F907305B092F
:10519800012000FA02F241F8232000BF0C37BD4677
:1051A80080BC704700E100E080B483B000AF0346E4
:1051B800FB7197F90730002B12DBFB7903F01F0214
:1051C8000A4997F907305B09012000FA02F22033F7
:1051D80041F82320BFF34F8F00BFBFF36F8F00BF8D
:1051E80000BF0C37BD4680BC704700BF00E100E03F
:1051F80080B483B000AF03463960FB7197F907307C
:10520800002B0ADB3B68DAB20C4997F90730120128
:10521800D2B20B4483F800230AE03B68DAB20849AB
:10522800FB7903F00F03043B1201D2B20B441A7648
:1052380000BF0C37BD4680BC704700BF00E100E0EE
:1052480000ED00E080B489B000AFF860B9607A6022
:10525800FB6803F00703FB61FB69C3F10703042B39
:1052680028BF0423BB61FB690433062B02D9FB6901
:10527800033B00E000237B614FF0FF32BB6902FA79
:1052880003F3DA43BB681A407B699A404FF0FF3159
:105298007B6901FA03F3D9437B680B401343184633
:1052A8002437BD4680BC704780B582B000AF7860B7
:1052B8007868FFF72BFF00BF0837BD4680BD80B573
:1052C80086B000AF0346B9607A60FB73FFF742FF10
:1052D80078617A68B9687869FFF7B4FF024697F988
:1052E8000F3011461846FFF783FF00BF1837BD4639
:1052F80080BD80B582B000AF0346FB7197F90730D7
:105308001846FFF735FF00BF0837BD4680BD80B59A
:1053180082B000AF0346FB7197F907301846FFF7D4
:1053280043FF00BF0837BD4680BD000080B582B08E
:1053380000AF78607B68002B01D101238EE07B6889
:105348001B681A46474B9A420FD87B681B681A4657
:10535800454B1344454AA2FB03231B099A007B686B
:105368005A647B68424A1A640EE07B681B681A46D6
:10537800404B13443D4AA2FB03231B099A007B6858
:105388005A647B683C4A1A647B68022283F82520A9
:105398007B681B681B687A68126823F4FF4323F054
:1053A800700313607B681B6819687B689A687B6860
:1053B800DB681A437B681B691A437B685B691A437D
:1053C8007B689B691A437B68DB691A437B681B6AA5
:1053D8001A437B681B680A431A60786800F030FB40
:1053E8007B689B68B3F5804F02D17B6800225A60C6
:1053F8007B685A687B689B6C02F07F021A607B6846
:10540800DB6C7A68126D5A607B685B68002B10D081
:105418007B685B68042B0CD8786800F059FB7B68C4
:105428005B6D00221A607B689B6D7A68D26D5A604A
:1054380008E07B6800225A657B6800229A657B68D1
:105448000022DA657B680022DA637B68012283F830
:1054580025207B68002283F824200023184608377B
:10546800BD4680BD07040240F8FFFDBFCDCCCCCCC3
:1054780000000240F8FBFDBF0004024080B582B086
:1054880000AF78607B68002B01D101237BE07B684B
:105498001B681A687B681B6822F001021A607B6827
:1054A8001B681A463A4B9A420FD87B681B681A4603
:1054B800384B1344384AA2FB03231B099A007B6824
:1054C8005A647B68354A1A640EE07B681B681A4682
:1054D800334B1344304AA2FB03231B099A007B6811
:1054E8005A647B682F4A1A647B681B6800221A601A
:1054F8007B685B6C03F01C027B681B6C012101FA62
:1055080002F25A60786800F09BFA7B689B6C002274
:105518001A607B68DB6C7A68126D5A607B685B681E
:10552800002B0FD07B685B68042B0BD8786800F0E1
:10553800CFFA7B685B6D00221A607B689B6D7A6886
:10554800D26D5A607B6800225A657B6800229A6592
:105558007B680022DA657B680022DA627B680022B9
:105568001A637B6800225A637B6800229A637B680F
:105578000022DA637B68002283F825207B680022FA
:1055880083F82420002318460837BD4680BD00BF95
:1055980007040240F8FFFDBFCDCCCCCC0000024090
:1055A800F8FBFDBF0004024080B586B000AFF8608C
:1055B800B9607A603B600023FB75FB6893F8243080
:1055C800012B01D1022369E0FB68012283F8242022
:1055D800FB6893F82530DBB2012B55D1FB6802221A
:1055E80083F82520FB680022DA63FB681B681A68C9
:1055F800FB681B6822F001021A603B687A68B96888
:10560800F86800F0E0F9FB681B6B002B08D0FB681A
:105618001B681A68FB681B6842F00E021A600FE0EC
:10562800FB681B681A68FB681B6822F004021A6092
:10563800FB681B681A68FB681B6842F00A021A605C
:10564800FB689B6C1B6803F48033002B07D0FB6856
:105658009B6C1A68FB689B6C42F480721A60FB684A
:105668005B6D002B07D0FB685B6D1A68FB685B6D90
:1056780042F480721A60FB681B681A68FB681B6832
:1056880042F001021A6008E0FB688022DA63FB68D6
:10569800002283F824200123FB75FB7D1846183768
:1056A800BD4680BD80B483B000AF78607B68002BB6
:1056B80001D101234FE07B6893F82530DBB2022B40
:1056C80008D07B680422DA637B68002283F82420F0
:1056D800012340E07B681B681A687B681B6822F01E
:1056E8000E021A607B689B6C1A687B689B6C22F4BC
:1056F80080721A607B681B681A687B681B6822F0D6
:1057080001021A607B685B6C03F01C027B681B6CEF
:10571800012101FA02F25A607B68DB6C7A68126D2B
:105728005A607B685B6D002B0CD07B685B6D1A68D8
:105738007B685B6D22F480721A607B689B6D7A6867
:10574800D26D5A607B68012283F825207B6800228D
:1057580083F82420002318460C37BD4680BC7047C8
:1057680080B584B000AF78600023FB737B6893F842
:105778002530DBB2022B05D07B680422DA630123D3
:10578800FB7347E07B681B681A687B681B6822F01C
:105798000E021A607B681B681A687B681B6822F017
:1057A80001021A607B689B6C1A687B689B6C22F408
:1057B80080721A607B685B6C03F01C027B681B6C50
:1057C800012101FA02F25A607B68DB6C7A68126D7B
:1057D8005A607B685B6D002B0CD07B685B6D1A6828
:1057E8007B685B6D22F480721A607B689B6D7A68B7
:1057F800D26D5A607B68012283F825207B680022DD
:1058080083F824207B689B6B002B03D07B689B6B01
:1058180078689847FB7B18461037BD4680BD000066
:1058280080B584B000AF78607B681B6C1B68FB6038
:105838007B681B681B68BB607B685B6C03F01C03A0
:1058480004229A40FB681340002B27D0BB6803F062
:105858000403002B22D07B681B681B6803F020031D
:10586800002B07D17B681B681A687B681B6822F0CD
:1058780004021A607B685B6C03F01C027B681B6C7B
:10588800042101FA02F25A607B681B6B002B00F0BE
:1058980081807B681B6B786898477BE07B685B6CD2
:1058A80003F01C0302229A40FB681340002B3DD0F2
:1058B800BB6803F00203002B38D07B681B681B68A9
:1058C80003F02003002B0BD17B681B681A687B68E8
:1058D8001B6822F00A021A607B68012283F82520DF
:1058E8007B681B681A462E4B9A4209D97B685B6C09
:1058F80003F01C032B4A022101FA03F3536008E06A
:105908007B685B6C03F01C03274A022101FA03F34E
:1059180053607B68002283F824207B68DB6A002BB5
:1059280038D07B68DB6A7868984733E07B685B6CC3
:1059380003F01C0308229A40FB681340002B2AD06E
:10594800BB6803F00803002B25D07B681B681A6826
:105958007B681B6822F00E021A607B685B6C03F0A0
:105968001C027B681B6C012101FA02F25A607B68F9
:105978000122DA637B68012283F825207B680022F4
:1059880083F824207B685B6B002B04D07B685B6BFF
:105998007868984700BF00BF1037BD4680BD00BF7C
:1059A80080000240000402400000024080B483B03E
:1059B80000AF78607B6893F82530DBB218460C3767
:1059C800BD4680BC704780B485B000AFF860B96050
:1059D8007A603B60FB68DB6CFA68126D5A60FB68A2
:1059E8005B6D002B04D0FB689B6DFA68D26D5A6022
:1059F800FB685B6C03F01C02FB681B6C012101FA5D
:105A080002F25A60FB681B683A685A60FB689B6838
:105A1800102B08D1FB681B687A689A60FB681B68C2
:105A2800BA68DA6007E0FB681B68BA689A60FB68C6
:105A38001B687A68DA6000BF1437BD4680BC7047BF
:105A480080B485B000AF78607B681B681A461C4B31
:105A58009A4213D87B685B6C9B089B0003F18043D8
:105A680003F502337A6893647B681B68DBB2083BF2
:105A7800144AA2FB03231B09FB6011E07B685B6CE3
:105A88009B089A00104B13447A6893647B681B68E0
:105A9800DBB2083B0B4AA2FB03231B090733FB605D
:105AA8007B680A4ADA64FB6803F01F0301229A4004
:105AB8007B681A6500BF1437BD4680BC704700BFBD
:105AC80007040240CDCCCCCC1C0802408008024020
